:020000040800F2
:10000000B84200209D010008A5010008A7010008D2
:10001000A9010008AB010008AD01000800000000C4
:10002000000000000000000000000000AF01000818
:10003000B101000800000000B3010008B50100088C
:10004000B7010008B7010008B7010008B7010008B0
:10005000B7010008B7010008B7010008B7010008A0
:10006000B7010008B7010008B7010008B701000890
:10007000B7010008B7010008B7010008B701000880
:10008000B7010008B7010008B7010008B701000870
:10009000B7010008B7010008B7010008B701000860
:1000A000B7010008B7010008B7010008B701000850
:1000B00059150008B7010008B7010008B70100088A
:1000C000B7010008B7010008B7010008B701000830
:1000D000B7010008FD160008B7010008B7010008C5
:1000E000B7010008B7010008B7010008B701000810
:1000F000B7010008B7010008B7010008B701000800
:10010000B7010008B7010008B7010008B7010008EF
:10011000B7010008B7010008B7010008B7010008DF
:100120009D0B0008B7010008B7010008B7010008DF
:10013000B7010008B7010008B7010008B7010008BF
:10014000B7010008B7010008B7010008B7010008AF
:10015000B7010008B7010008B7010008B70100089F
:10016000B7010008B7010008B7010008B70100088F
:10017000B7010008B7010008B7010008B70100087F
:10018000B7010008B7010008DFF80CD000F02AFA28
:1001900000480047C5230008B842002006488047B1
:1001A00006480047FEE7FEE7FEE7FEE7FEE7FEE75C
:1001B000FEE7FEE7FEE7FEE7F1140008890100080C
:1001C000D2B201E000F8012B491EFBD27047002299
:1001D000F6E710B513460A4604461946FFF7F0FF46
:1001E000204610BD30B50B460146002020220124D8
:1001F00009E021FA02F59D4205D303FA02F5491BF5
:1002000004FA02F52844151EA2F10102F1DC30BD0A
:100210002DE9F05F0546002092469B46884606463B
:10022000814640241BE0284641464746224600F0CE
:10023000FAF953465A46C01A914110D3114618464E
:10024000224600F0E1F92D1A67EB01084F462246DD
:100250000120002100F0D8F917EB00094E41201EC3
:10026000A4F10104DFDC484631462A464346BDE896
:10027000F09F2DE9FE4F804681EA0300C00F0C4637
:10028000009021F0004123F00045B8EB0200A941A5
:1002900005D24046214690461C460B46024623F0B6
:1002A0000040104347D0270DC7F30A00C3F30A519B
:1002B0000290401A019040286BDAC3F3130040F417
:1002C000801B0098924620B10023D2EB030A63EB17
:1002D0000B0B01985946C0F14002504600F094F9CA
:1002E00006460D4650465946019A00F0ACF910EB0F
:1002F00008006141002487EA115284EAE7731A4337
:1003000040D0009A62B3019A012A4FEA075215DCE5
:10031000001B61EB02014FF0004202EA0752CDE9F7
:100320000042001C41F5801132462B4600F0ACF92A
:1003300003B0BDE8F08F40462146F9E7001B61EBB2
:100340000201001C41F5801300185B412018A2F542
:10035000001747EB030140EAD570B6196D4111E073
:100360006D084FEA360645EAC0754FEA0752001B92
:1003700061EB0201001C41F5801149084FEA300091
:100380000019514132462B4603B0BDE8F04F00F052
:100390006CB90098012240000023D0EB020263EB0D
:1003A000E073009821464FEAE074B8EB000061EB7F
:1003B0000401E9E783F000435BE781F0004158E77F
:1003C0002DE9FE4F81EA030404F0004421F00041CE
:1003D00000944FF0000B23F0004350EA01045ED07C
:1003E00052EA03045BD0C3F30A54C1F30A552C4408
:1003F000A4F2F3340194A0FB0254C1F3130141F4BD
:100400008011C3F3130343F4801301FB024400FB88
:10041000034E840A970A44EA815447EA8357A4FBAF
:10042000076802958D0A05FB07854FEA932C04FBAC
:100430000C542705029D4FEA065847EA1637B5EBDC
:1004400008056EEB070C870E920E47EA811742EA09
:100450008312A7FB0201B6EB0B0164EB00042B0D2A
:1004600043EA0C335E1844EB1C50DA465146E7FB76
:100470000201C5F313044FEA0B3343EA14534FEA66
:100480000432019C43EA0603A4F10C040294009C8C
:10049000CDE900B400F0F8F803B0BDE8F08F00201B
:1004A0000146F9E72DE9F04D81EA030404F0004B21
:1004B00021F0004514464FF0000A23F0004150EAB5
:1004C000050220D054EA01021DD0C5F30A570246A6
:1004D000C5F31303C1F31300C1F30A5640F48015AA
:1004E00043F48013A7EB0608101BD64608F2FD382C
:1004F00073EB050002D308F1010801E092185B419B
:10050000B8F1000F03DA00200146BDE8F08D0020AD
:100510004FF48011064684460EE0171B73EB050767
:1005200005D3121B63EB050306434CEA010C490893
:100530004FEA300092185B4150EA0107EDD152EAD0
:10054000030012D082EA040083EA0501084305D0C3
:10055000101BAB4106D20122002306E000224FF01F
:10056000004302E06FF0010253101AEB06004CEB5F
:10057000085110EB0A0041EB0B01BDE8F04D00F013
:1005800074B8C1F30A52C1F3130140F2FF3341F4CE
:1005900080119A4202DA00200146704740F233434C
:1005A0009A42A2F2334202DC524200F03CB800F020
:1005B0002BB8000030B5041E71F1000404DB4FF0CD
:1005C0000044404264EB0101141E73F1000405DB9A
:1005D0001C464FF00043524263EB0403994208BFAC
:1005E000904230BD064C074D06E0E06840F0010344
:1005F00094E8070098471034AC42F6D3FFF7C8FDE3
:100600001C2400083C240008202A04DB203A00FABD
:1006100002F1002070479140C2F1200320FA03F359
:10062000194390407047202A04DB203A21FA02F057
:100630000021704721FA02F3D040C2F1200291401C
:10064000084319467047202A06DBCB17203A41FAA7
:1006500002F043EAE07306E041FA02F3D040C2F14F
:100660002002914008431946704710B5141E73F1DB
:10067000000408DA401C41F1000192185B411A4362
:1006800001D120F0010010BD2DE9F04D92469B46AE
:1006900011B1B1FA81F202E0B0FA80F22032904654
:1006A000FFF7B2FF04460F4640EA0A0041EA0B0199
:1006B00053465A46084313D0114653EA010019D055
:1006C000C8F140025046FFF7AEFF05460E465046C1
:1006D00059464246FFF798FF084305D0012004E041
:1006E00020463946BDE8F08D0020054346EAE07615
:1006F0002C4337430A986305E40AA0EB0800002264
:10070000FD0A44EA47540A3002D500200146E9E7D1
:10071000010510196941DDE9084500196941BDE885
:10072000F04DA2E721B1826842F00102826003E04D
:10073000826822F001028260704700000021084AAE
:100740001168084A1140D0E900231A4383681A430C
:10075000C3681A431143044AC2F8041370470000E7
:1007600004230140E030FCFF0020014021B18268F9
:1007700042F48072826003E0826822F480728260B8
:100780007047000000B59FB00121084600F0DEFC74
:100790000121880500F0DAFC0121080200F006FDC5
:1007A0000121022000F0E2FC20201D9003208DF8A2
:1007B000780000208DF87B001DA9454800F07AFBE9
:1007C00000200E9043480F90434810900020119055
:1007D0004FF4FA501290002013904FF48060149060
:1007E000400015908000169040111790400218901C
:1007F0000020199001201A9000201B901C900EA937
:10080000364800F02BFB38208DF8000000208DF8D2
:1008100001008DF8020001208DF80300684600F009
:100820004FFC2F492D4800F0D3F9002210212B480E
:1008300000F0F6FA0121294800F0FEF900200490AA
:100840004FF48030059000200690079004A8FFF731
:1008500075FF002008908DF824008DF825004FF0DA
:1008600080500A9040100B9000200C9001208DF8D1
:10087000340008A917484C3800F036F8022301224A
:10088000052114484C3800F059F8012111484C3822
:10089000FFF76CFF01210F484C38FFF743FF092099
:1008A000029040F21940ADF804000020ADF80C00B1
:1008B000ADF8060001A90B4800F0A2FE202109486E
:1008C00000F092FE0021074800F062FE1FB000BD5C
:1008D000000002404C20014034000020106402401F
:1008E0003D0080100004004030B502460020002387
:1008F0005068104C20400D790C6844EA05242043D0
:10090000506090680C4C2040D1E903542C438D6812
:100910002C434D7944EA450420439060D06A20F48A
:1009200070000C7D641EE4B2234340EA0350D062A1
:1009300030BD0000FFFEFFFCFDF7FFC0F0B5044630
:100940000D4600200021092D11DDE068A5F10A0601
:1009500006EB4607072606FA07F18843A5F10A06C3
:1009600006EB460603FA06F10843E0600CE0206956
:1009700005EB4507072606FA07F1884305EB450610
:1009800003FA06F108432061072A0FDA606B561E4E
:1009900006EB86071F2606FA07F18843561E06EB6C
:1009A000860605FA06F10843606322E00D2A0FDA95
:1009B000206BD61F06EB86071F2606FA07F1884331
:1009C000D61F06EB860605FA06F10843206310E001
:1009D000E06AA2F10D0606EB86071F2606FA07F16C
:1009E0008843A2F10D0606EB860605FA06F10843D8
:1009F000E062F0BD00B58FB00020384908700021DA
:100A0000374800F0C5FD0021364800F015F900BF59
:100A1000344800F0C9F90028FAD14FF47A5132482D
:100A2000FFF7D5FB2F4800F013F9002000902F4866
:100A300001902D480290002003904FF4FA5004904A
:100A4000002005904FF480600690400007908000E1
:100A50000890002009904FF400300A9000200B907D
:100A600001200C9000200D900E9069461D4800F06A
:100A7000F5F91F491B4800F0ABF801221021194875
:100A800000F0CEF90121174800F0D6F800211748F0
:100A90004C38FFF747FE012001F04EFC00211348BF
:100AA0004C38FFF763FE012110484C38FFF75EFE1B
:100AB00001210E484C38FFF735FE012001F03CFCC7
:100AC0000021074800F064FD0021054800F095FD75
:100AD0000121034800F05CFD0FB000BD14000020B0
:100AE0000004004010640240340000204C2001400B
:100AF0003D00801070B564261948007800282DD07C
:100B00001848008810B918A000F086FF1CE01548AE
:100B10000088643085B2B5F5FA5F01DD4FF4FA550F
:100B20001048048808E0174830F81420214616A021
:100B300000F072FF601C84B2AC42F4DB094805800F
:100B40000A2001F0F9FB00BF06480088B0F5FA5F03
:100B5000DDDB0020034908800149087070BD0000FA
:100B6000140000201600002041444320636F6E767D
:100B7000657273696F6E20726573756C74733A0D6C
:100B80000A0000003400002053616D706C65202560
:100B9000643A205261773D25640D0A0010B508497A
:100BA000084800F00BF950B10549064800F02AF852
:100BB0000021054800F0ECFC01200449087010BD3C
:100BC0002080001010640240000400401400002047
:100BD0000246094B9A4201D2084801E00648103803
:100BE00001F000531BB1064B0B40C36002E0044B05
:100BF0000B408360704700001064024000600240B8
:100C00007D0F7D0F0246094B9A4201D2084801E050
:100C10000648103801F000531BB1064B0B40C3606F
:100C200002E0044B0B4083607047000010640240F8
:100C3000006002407D0F7D0F21B1026842F0010289
:100C4000026003E0026822F00102026070470000C7
:100C5000016821F0010101600021016041608160B3
:100C6000C1600161212141614A49884204D13D218D
:100C7000484A103A91608CE046491831884205D1C3
:100C80004FF47461434A103A916082E04149303137
:100C9000884205D14FF474113E4A103A916078E0D1
:100CA0003C494831884205D14FF07461394A103AC5
:100CB00091606EE037496031884204D13649354A47
:100CC000103AD16065E033497831884204D1334924
:100CD000304A103AD1605CE02E499031884204D10C
:100CE0002F492C4A103AD16053E02A49A831884252
:100CF00005D14FF03D51274A103AD16049E02949CA
:100D0000884204D13D21274A083A116041E0254933
:100D10001831884205D14FF47461224A083A1160B3
:100D200037E020493031884205D14FF474111D4A13
:100D3000083A11602DE01B494831884205D14FF037
:100D40007461184A083A116023E0164960318842FC
:100D500004D11149134A121F11601AE01149783168
:100D6000884204D10D490F4A121F116011E00D494C
:100D70009031884204D10A490A4A121F116008E0E2
:100D80000849A831884204D14FF03D51054A121F4D
:100D900011607047106002403D000020400F0020AD
:100DA00000003D2010640240014600200A6802F065
:100DB00001020AB1012000E00020704770B5024630
:100DC000002000240025124EB24201D2114B01E056
:100DD0000F4B103B104E0E4036B11E2606EAD124B2
:100DE000166806EA040502E0566906F0800501F07F
:100DF00000560EB15C6800E01C68084E344004EAFE
:100E0000010616B10DB1012000E0002070BD000008
:100E100010640240006002403C0F3C0F7D0F7D0FCC
:100E200010B501F080034BB122B1436943F0800358
:100E3000436103E0436923F08003436180290BD0C1
:100E40002AB1036801F01E042343036004E0036831
:100E500001F01E04A343036010BD000010B5002282
:100E60000268134B1A40CC680B6823434C69234338
:100E70008C692343CC6923430C6A23434C6A234384
:100E80008C6A23434C6B23438C6B23431A430260CD
:100E9000426922F00702D1E90B3423431A4342612D
:100EA0000B6943604B6883608B68C36010BD0000B2
:100EB0003F801CF0F0B50A4600210023002400BF4B
:100EC0003DE0012505FA01F3156805EA03049C429B
:100ED00034D105684F000326BE40B543056015793F
:100EE0004E00B5400668354305601579012D02D0E6
:100EF0001579022D16D185684F000326BE40B543F3
:100F0000856055794E00B5408668354385604568F3
:100F100001268E40B5434560456896798E40B6B24D
:100F200035434560C5684F000326BE40B543C560E4
:100F3000D5794E00B540C6683543C560491C1029B7
:100F4000BFD3F0BDF0B5002300244D07ED0E02FA2B
:100F500005F3CE1000F1200555F826504E07F70E88
:100F60000F26BE40B543CF1000F1200646F82750AB
:100F7000CE1000F1200555F8265045EA0304CE10A6
:100F800000F1200545F82640F0BD02460020136917
:100F90000B400BB1012000E00020704781617047D9
:100FA0004FF6FF7101600021017141718171C171C2
:100FB000704700000548007830B1044801780020EF
:100FC000024A1070084670470020FCE71800002015
:100FD00010B504210748FFF7D8FF012800D110BD44
:100FE00008210448FFF7D1FF012801D10220F6E7CC
:100FF0000020F4E7000002401CB50121084600F083
:10100000A5F800208DF804000C20009002208DF837
:1010100007008DF8050069460148FFF74BFF1CBD2E
:101020000000024010B50F480078401C0D490870C0
:1010300008460078142813DB002008700A4800785E
:101040000A490870FFF7C4FF07490870084600788E
:1010500030B90648007818B104480078044908708F
:1010600010BD0000190000201A0000201B00002005
:10107000180000201CB50121082000F067F84FF48B
:10108000C060009001208DF8040000208DF806005B
:1010900003208DF8050000208DF8070069460748F9
:1010A000FFF708FF4FF400710448FFF777FF4FF494
:1010B00080610248FFF772FF1CBD0000000C024077
:1010C00070B5002100230F22C4781CB3174C24688C
:1010D00004F4E064C4F5E064C4F30721C1F104043E
:1010E000E3B20A4144789C40E1B284781440214341
:1010F0000C07210E0E4C05786155047804F01F058D
:101100000124AC4005786D11AD0005F1E025C5F86E
:10111000004109E0047804F01F050124AC40054DAE
:101120000678761145F8264070BD00000CED00E011
:1011300000E400E080E100E002490143024A11605E
:10114000704700000000FA050CED00E029B1064AE6
:1011500012680243044B1A6004E0034A1268824397
:10116000014B1A60704700003038024029B1064A2E
:1011700012680243044B1A6004E0034A1268824377
:10118000014B1A60704700004038024029B1064AFE
:1011900012680243044B1A6004E0034A1268824357
:1011A000014B1A60704700002038024029B1064AFE
:1011B00012680243044B1A6004E0034A1268824337
:1011C000014B1A60704700004438024029B1064ABA
:1011D00012680243044B1A6004E0034A1268824317
:1011E000014B1A607047000024380240F0B500211E
:1011F00000220024022500260223324F3F6807F018
:101200000C0121B1042905D0082937D105E02E4F62
:10121000076036E02D4F076033E02A4F3F1F3F68DD
:10122000C7F38056274F3F1F3F6807F03F036EB15B
:10123000264FB7FBF3F7DFF88CC0ACF1040CDCF8F9
:1012400000C0CCF3881C07FB0CF40CE01E4FB7FB6E
:10125000F3F7DFF870C0ACF1040CDCF800C0CCF39D
:10126000881C07FB0CF4174F3F1F3F68C7F301476B
:101270007F1C7D00B4FBF5F7076002E0124F0760AA
:1012800000BF00BF0F4F3F6807F0F0010909104F82
:101290007A5C0768D74047600A4F3F6807F4E0511F
:1012A000890A0B4F7A5C4768D7408760054F3F68D3
:1012B00007F46041490B064F7A5C4768D740C76026
:1012C000F0BD0000083802400024F40040787D01A1
:1012D0002000002010B588B0044601210846FFF721
:1012E00035FF01210220FFF731FF0722092138488D
:1012F000FFF728FE072211463648FFF723FE06A80F
:10130000FFF74EFE4FF40070069002208DF81C008F
:1013100003208DF81D0000208DF81E0001208DF89F
:101320001F0006A92A48FFF7C5FD06A8FFF738FEEB
:101330008020069002208DF81C0003208DF81D00EF
:1013400000208DF81E0001208DF81F0006A92148FD
:10135000FFF7B0FD01211020FFF728FF1E4800F025
:1013600007FA02A800F04BFB02940020ADF80C0035
:10137000ADF80E00ADF810000C20ADF81200002002
:10138000ADF8140002A9144800F0C6FA2021124852
:1013900000F0CAF90121104800F0DEF9012240F204
:1013A00025510D4800F093FA4FF4A060FFF7C4FEFA
:1013B00025208DF8040000208DF8050001208DF80F
:1013C00006008DF8070001A8FFF77AFE08B010BDEF
:1013D0000000024000040240001001400CB5002053
:1013E000019000903448006840F480303249086031
:1013F00000BF3148006800F4003000900198401CA4
:101400000190009818B90198B0F5A04FF1D12A4881
:10141000006800F4003010B10120009001E00020CD
:1014200000900098012846D123484030006840F0E1
:1014300080502149403108602048006840F4404015
:101440001E4908601C48083000681B4908310860C4
:101450000846006840F4004008600846006840F410
:10146000A05008601648091F0860081F006840F077
:101470008070091F086000BF0F48006800F000700E
:101480000028F9D040F205700E4908600A4808307B
:10149000006820F003000849083108600846006829
:1014A00040F00200086000BF03480830006800F008
:1014B0000C000828F8D10CBD003802400070004034
:1014C00019544007003C0240042808D14FF0E021A5
:1014D000096941F004014FF0E022116107E04FF08B
:1014E000E021096921F004014FF0E0221161704709
:1014F00010B51548006840F470001349086013489F
:10150000006840F001001149086000200F490831CF
:1015100008600E4800680E4908400C4908600D48F4
:10152000091D0860081F006820F48020091F08605A
:10153000002006490C310860FFF750FF4FF00060B3
:1015400001498039086010BD88ED00E00038024094
:10155000FFFFF6FE1030002410B50121880700F0CF
:1015600023F801280AD106480068401C0449086095
:10157000FFF758FD0121880700F007F810BD0000B3
:101580001C000020CA4302827047CA43028270478F
:1015900021B1028842F00102028004E002884FF685
:1015A000FE731A400280704730B5024600200023C7
:1015B0000024158A05EA0103958905EA010413B19F
:1015C0000CB1012000E0002030BD1AB183890B432B
:1015D000838102E083898B438381704701894FF6C1
:1015E000F87211400181704782884FF68F731A405C
:1015F000828082880A43828070474162704700007F
:1016000000220288184B98420ED0184B98420BD0FB
:10161000B0F1804F08D0164B984205D0154B984238
:1016200002D0154B984204D14FF68F731A404B8865
:101630001A43124B984207D0114B984204D04FF6F0
:10164000FF431A400B891A4302804B68C3620B8820
:101650000385054B984202D0044B984201D18B7A06
:10166000038601238382704700000140000401408B
:101670000004004000080040000C00400010004042
:10168000001400401FB501210846FFF76FFD4FF021
:101690008040FFF7A3FF42F6031002900720ADF849
:1016A00004000020ADF80C00ADF806008DF80E0027
:1016B00001A94FF08040FFF7A3FF01218807FFF742
:1016C00061FF012211469007FFF77FFF4FF4A060F2
:1016D000FFF732FD1C208DF8000001208DF803007B
:1016E00000208DF8010002208DF802006846FFF707
:1016F000E7FC01218807FFF74BFF1FBD10B540F243
:101700002551084800F0B9F8012809D1054800F032
:101710006DF9C4B240F22551024800F00EF800BF46
:1017200010BD00000010014001F40072B2F5007F0E
:1017300000D100BFCA430280704710B500220023C9
:1017400040F66A14A14200D100BF0A12012494405D
:10175000A3B2DC43048010BD21B1828942F400525F
:10176000828104E082894DF6FF731A4082817047BE
:1017700010B504463248844208D101211020FFF7F9
:1017800025FD00211020FFF721FD57E02D48844260
:1017900009D101214804FFF7F9FC00214FF4003082
:1017A000FFF7F4FC4AE02848844209D1012188046B
:1017B000FFF7ECFC00214FF48020FFF7E7FC3DE051
:1017C0002248844209D10121C804FFF7DFFC00212F
:1017D0004FF40020FFF7DAFC30E01D48844209D1C5
:1017E00001210805FFF7D2FC00214FF48010FFF71C
:1017F000CDFC23E01748844208D101212020FFF7C7
:10180000E5FC00212020FFF7E1FC17E012488442AC
:1018100009D101218807FFF7B9FC00214FF0804072
:10182000FFF7B4FC0AE00D48844207D101214005CE
:10183000FFF7ACFC00216005FFF7A8FC10BD00001D
:10184000001001400044004000480040004C0040AF
:10185000005000400014014000780040007C00402F
:1018600002460020B1F5007F00D100BF13880B4075
:101870000BB1012000E00020704770B50246002443
:1018800000230025002040F66A16B14200D100BFB7
:10189000C1F3421501F01F03012606FA03F3012DDF
:1018A00002D19689334006E0022D02D1168A3340D8
:1018B00001E0968A33400C12012606FA04F41688D9
:1018C000344013B10CB1012000E0002070BDF0B530
:1018D0000346002400260025002040F66A17B9427E
:1018E00000D100BF1846C1F3421401F01F060127C2
:1018F00007FA06F5012C01D10C3004E0022C01D1CD
:10190000103000E014301AB107682F43076002E07E
:101910000768AF430760F0BD2DE9FF4705460E4657
:101920000024A14600BFA046B08900B100BF2C8AA8
:1019300024F44054F08804432C82AC8941F20C60BA
:101940008443B08831890843718908430443AC81DA
:10195000AC8A24F44074B0890443AC826846FFF733
:1019600045FC2048854202D01F48854202D1DDF85F
:101970000C9001E0DDF80890A88900F4004040B127
:1019800009EBC90000EB091031684900B0FBF1F721
:1019900007E009EBC90000EB091031688900B0FBD2
:1019A000F1F76420B7FBF0F004012009642101FB8A
:1019B0001078A88900F4004040B1322000EBC80044
:1019C000B0FBF1F000F00700044308E0322000EB28
:1019D00008106421B0FBF1F000F00F0004432C81EB
:1019E000BDE8FF87001001400014014001468888CF
:1019F000C0F308007047C1F30802828070474FF4BB
:101A00001651016000218180C18001810C2141813A
:101A100000218181704700000FB4054B10B503A968
:101A2000044A029800F0DAF810BC5DF814FB0000DC
:101A3000A12300083000002002E008C8121F08C1DE
:101A4000002AFAD170477047002001E001C1121F3F
:101A5000002AFBD1704700002DE9FF5F82B0002112
:101A6000DDE90430020DDDF840B0034318D044F640
:101A70001050A2F2FF3242431514119801281FD0D2
:101A8000A5EB0B00401C5FEA000A4FF000064E4F2A
:101A9000DFF83891B046504615D5CAF1000413E07E
:101AA000119801244AA3012801D16FEA0B01029881
:101AB000119AC0E90031C0E9024206B0BDE8F09FCA
:101AC000CBF10000DFE704460021404A491842EB11
:101AD0000450CDE9001012E0E00707D032463B4643
:101AE00040464946FEF76CFC8046894632463B46F6
:101AF00010461946FEF764FC06460F466410002C9B
:101B0000EAD1DDE90401DDE90023BAF1000F06DACC
:101B1000FEF756FC42464B46FEF752FC05E0FEF748
:101B2000C1FC42464B46FEF7BDFC04460E46002271
:101B3000284BFEF73FFD03D84FF0FF30014607E08A
:101B40000022254B20463146FEF793FBFEF719FD98
:101B5000102409E0002C0ADB0A220023FEF758FBC0
:101B6000039B30321A55641E50EA0102F2D1641C04
:101B7000039AC4F111031444119A012A03D00122DB
:101B800008430DD10AE0084304D000204FF0110BA8
:101B9000119072E7A3EB0B056D1E0DE05B4504DDB4
:101BA0004FF0000205F1010504E003DA4FF00002F6
:101BB000A5F10105002AECD002981199C0E9023183
:101BC000C0E9004579E70000000014400000F03F44
:101BD000300000000000F0430000E03F2DE9FF4F1F
:101BE00095B09B468946064600250FE2252877D109
:101BF00000242746F84A0121059400E0044316F822
:101C0000013F203B01FA03F01042F7D130782A2837
:101C100011D06FF02F033078A0F13002092A16D8C6
:101C2000059A44F0020402EB820203EB42021044E4
:101C3000761C0590EFE759F8042B0592002A03DA89
:101C4000504244F40054059044F00204761C30786D
:101C50002E2816D116F8010F44F004042A280DD0BE
:101C60006FF02F023078A0F13003092B09D807EB71
:101C7000870302EB4303C718761CF3E759F8047B8C
:101C8000761C30786C280FD006DC4C2817D06828DA
:101C90000DD06A2814D104E0742810D07A280FD10E
:101CA0000DE044F400140AE044F4801401E044F42C
:101CB00040147278824202D104F58014761C761C9E
:101CC000307866280BD013DC582877D009DC002840
:101CD00075D04528F6D04628F4D047281AD19DE182
:101CE00018E0632835D0642879D0652812D195E1B1
:101CF000702873D008DC6728F1D069286FD06E286F
:101D00000DD06F2806D1B5E073282CD0752875D07A
:101D1000782874D05A46179990476D1C75E1C4F322
:101D20000250022809D003280DD0D9F80010042849
:101D30000DD00D6009F1040967E1D9F80010EA1728
:101D4000C1E90052F6E7D9F800100D80F2E70D70F6
:101D5000F0E719F8041B8DF8001000208DF8010041
:101D6000EA46012003E059F804AB4FF0FF30610769
:101D70004FF0000102D40DE008F101018846B9429C
:101D80000FDA8045F8DB1AF808100029F4D108E0D2
:101D900008F1010188468142FADB1AF8081000298F
:101DA000F6D105985B46A0EB080721463846179AFE
:101DB00000F094FA284400EB080507E04DE029E123
:101DC0000DE01AF8010B5A4617999047B8F101082F
:101DD000F7D25B4621463846179A13E142E00A22C1
:101DE0000092C4F302524FF0000A022A08D059F8B8
:101DF00004CB032A4FEAEC710AD00DE029E02AE077
:101E000009F1070121F00702F2E802C1914609E059
:101E10000FFA8CFC4FEAEC71042A03D14FFA8CFCC8
:101E20004FEAEC71002907DA0A460021DCF1000CC8
:101E300061EB02012D2202E0220504D52B228DF850
:101E40000420012203E0E20701D02022F7E79046B8
:101E500059E00A2102E010220DE010214FF0000AA3
:101E600000910BE010224FF0000A44F00404082710
:101E7000009203E008224FF0000A0092C4F30252DD
:101E8000022A05D059F804CB0021032A08D009E022
:101E900009F1070121F00702F2E802C1914605E0CD
:101EA0001FFA8CFC042A01D10CF0FF0C4FF0000843
:101EB000220728D5702806D0009B83F0100353EA30
:101EC0000A0305D00EE040228DF80420012208E02C
:101ED0005CEA010206D030228DF804208DF805005E
:101EE00002229046009B83F0080353EA0A030AD1BA
:101EF0005CEA010201D1620705D530228DF8042089
:101F00004FF001087F1E582804D034A003900EA87B
:101F100002900DE036A0F9E753466046009AFEF7BE
:101F200077F984460398825C0298401E0290027002
:101F30005CEA0100F0D1029806A9081A00F1200A13
:101F4000600702D524F4803400E00127574502DD04
:101F5000A7EB0A0000E0002000EB0A0100900598C2
:101F60004144401A0590E00306D45B462146179A87
:101F7000059800F0B3F90544002706E001A85A4689
:101F8000C05D179990476D1C7F1C4745F6DBE00349
:101F90000CD55B462146179A059800F09FF9054439
:101FA00004E030205A46179990476D1C0099481E4E
:101FB00000900029F5DC08E0029802995A46007862
:101FC000491C0291179990476D1CBAF10001AAF1C2
:101FD000010AF1DC65E100000928010030313233EB
:101FE0003435363738396162636465660000000055
:101FF000303132333435363738394142434445463F
:102000000000000000F058F90544761C30780028E4
:102010007FF4ECAD19B02846BDE8F08F620700D41C
:10202000062709F1070222F0070CFCE80223E1462B
:1020300003F000485FEA080C02D00FF2702C0DE0AC
:102040005FEA045C02D50FF2682C07E05FEAC47C0B
:1020500002D00FF2602C01E0AFF2700C4FF0FF38AD
:1020600023F00043CDF850C065280CD006DC45288D
:1020700009D046281DD047283DD13DE0662818D01C
:1020800067287ED138E00021112F01DB112000E00C
:10209000781CCDE9000106A90EA8FFF7DDFCDDE9FB
:1020A0000F010E9A03910021009207F1010A049199
:1020B0004DE04FF000400097CDE9011006A90EA8B1
:1020C000FFF7CAFCDDE90F0203920E9B1199002273
:1020D000DDF80CA00093049211B9791C00EB010A01
:1020E000B7EB0A0004D4C0F1FF3007F1010A0490F5
:1020F000AAEB0700019044E0012F00DA012700213C
:10210000112F01DD112000E03846CDE9000106A9BC
:102110000EA8FFF7A1FCDDE90F010E9A0391002143
:1021200004910092BA4621070CD40399514500DA74
:102130008A46BAF1010F05DD009AAAF10101515C4E
:10214000302908D0B84202DA10F1040F06DA012172
:10215000CDE9011015E0AAF10101E9E7002805DC4D
:10216000049901440491AAEB000102E0411C51458D
:1021700000DD8A460499401A401C01904FF000404F
:102180000290200704D40198504501DBCDF804806B
:1021900000208DF84F0002980DF14F07B0F1004F6D
:1021A00025D02B200E9002984FF0020800280CDA60
:1021B000404202902D200E9007E00A210298FEF77F
:1021C00011F83031029007F8011DB8F10001A8F1B3
:1021D0000108F2DC02980028EFD1791E0E980870F1
:1021E000307800F0200040F0450007F8020D12A8FA
:1021F000C01B00F107081498007800B1012000EB23
:102200000A01019801EBE07105984144401A401E13
:102210000590E00306D45B462146179A059800F026
:102220005DF805441498007818B15A4617999047FC
:102230006D1CE00324D55B462146179A059800F0F3
:102240004DF805441CE00498002807DBDDE9030194
:10225000884203DD0098405C179901E0179930200F
:102260005A469047049805F10105401C04900198D6
:10227000401E019004D12E205A46179990476D1C9C
:10228000BAF10001AAF1010ADDDC05E017F8010B43
:102290005A46179990476D1CB8F10001A8F1010842
:1022A000F4DC5B462146179A0598ABE62D0000004A
:1022B0002B000000200000002DE9F041044600251D
:1022C0001E461746880404D405E039462020B0474E
:1022D0006D1C641EF9D52846BDE8F0812DE9F0415A
:1022E000044600251E469046C80301D5302700E06D
:1022F0002027880404D505E041463846B0476D1CC8
:10230000641EF9D52846BDE8F081000010B54FF0F5
:102310000060084908600420FFF7D6F84FF6FF7008
:102320004FF0E02148610846006940F00100086173
:1023300010BD000008ED00E010B504464FF47A71BE
:1023400004FB01F000F002F810BD000070B5034678
:102350000022114D2D68114EB5FBF6F505FB03F477
:102360004FF0E025A96913E04FF0E025A869884205
:102370000ED0884202D20D1A2A4405E04FF0E02523
:102380006D692D1A0D442A440146A24200D300E093
:10239000EAE700BF70BD00000000002040420F00CF
:1023A00070B504460D46E1B20548FFF724FB00BFB7
:1023B00080210348FFF754FA0028F9D0204670BD69
:1023C00000100140FFF7A2FFFEF754FEFEF714FED7
:1023D000FFF758F94FF4E130FEF77CFFFEF7D2F932
:1023E00019E0FEF7E7FD012815D14FF4FA70FFF769
:1023F000A3FFFEF7FFFA4FF47A70FFF79DFF08E0A6
:10240000FEF778FB0448007800B903E00520FFF7E9
:1024100093FFF5E700BFE4E7140000203C24000828
:102420000000002034000000381A00087024000862
:102430003400002084420000481A0008007A030A91
:102440000000000000000000010203040607080964
:10245000000000000000000000000000000000007C
:10246000010203040102030406070809000000003A
:040000050800018965
:00000001FF
