:020000040800F2
:10000000284E01205D020008650200086702000812
:10001000690200086B0200086D0200080000000081
:100020000000000000000000000000006F02000857
:100030007102000800000000730200087502000849
:1000400077020008770200087702000877020008AC
:10005000770200087702000877020008770200089C
:10006000770200087702000877020008770200088C
:10007000770200087702000877020008770200087C
:10008000770200087702000877020008770200086C
:10009000770200087702000877020008770200085C
:1000A000770200087702000877020008770200084C
:1000B000693D00087702000877020008770200080F
:1000C000770200087702000877020008770200082C
:1000D000770200080D3F0008770200087702000849
:1000E000770200087702000877020008770200080C
:1000F00077020008770200087702000877020008FC
:1001000077020008770200087702000877020008EB
:1001100077020008770200087702000877020008DB
:10012000A93100087702000877020008770200086A
:1001300077020008770200087702000877020008BB
:1001400077020008770200087702000877020008AB
:10015000770200087702000877020008770200089B
:10016000770200087702000877020008770200088B
:10017000770200087702000877020008770200087B
:1001800077020008770200084B1C012B98BF7047CC
:100190002DE9F003911C9B08B1F80480B1F802909E
:1001A0000A8831F802CC8044814402448444D9F85E
:1001B0000070D8F800601568DCF80040C9F80060ED
:1001C000C8F80070CCF800501460D9F80470D8F862
:1001D00004605568DCF80440C9F80460C8F804708D
:1001E000CCF80450546008315B1ED5D1BDE8F00353
:1001F00070474B1C012B98BF70472DE9F003911CF1
:100200009B08B1F80480B1F802900A8831F802CC5A
:1002100000EB580800EB590900EB520200EB5C0CB4
:10022000D9F80070D8F800601568DCF80040C9F80B
:100230000060C8F80070CCF80050146008315B1EF4
:10024000DFD1BDE8F0037047DFF80CD001F032FCDD
:100250000048004749520008284E012006488047C0
:1002600006480047FEE7FEE7FEE7FEE7FEE7FEE79B
:10027000FEE7FEE7FEE7FEE7013D00084902000851
:100280005FEA930C26D000BF90ED000AD1ED000A82
:1002900090ED012A91ED011A60EE201A90ED020A0C
:1002A00022EE012AD1ED020A90ED031AC2ED001AE6
:1002B000D1ED031A20EE200A82ED012A61EE210A17
:1002C00082ED020A1030C2ED030A10311032BCF187
:1002D000010CD9D113F0030308BF7047B3F1004FED
:1002E0002CD2002BD8BF7047001F091F121F13F01C
:1002F000010F0AD090ED010AD1ED010A001D091D80
:1003000020EE200A82ED010A121D5B0808BF70472B
:1003100090ED010AD1ED010A20EE200A82ED010ADA
:1003200090ED020AD1ED020A0830083120EE200AD1
:1003300082ED020A08325B1EEAD17047B0EC010A76
:100340005B1EF1EC010A20EE200AA2EC010AF5D1B5
:1003500070470000930814D090ED032AD0ED000AF6
:1003600090ED011AD0ED021A22EE002A60EE800A0A
:1003700021EE001A61EE801AE1EC040A10305B1ED7
:10038000EAD112F0030208BF7047B2F1004F24D245
:10039000002AD8BF7047001F091F12F0010F07D0B5
:1003A000D0ED010A001D60EE800AC1ED010A091DB1
:1003B000520808BF704700BFD0ED010A60EE800A06
:1003C000C1ED010AD0ED020A083060EE800AC1EDED
:1003D000020A0831521EEFD17047F0EC010A521E9A
:1003E00060EE800AE1EC010AF7D170479FED1A1A1E
:1003F000F5EE000A40EE010ABDEEE00AF5EEC00A95
:1004000010EE100AF1EE10FA38BF401E00EE100A8E
:100410001349F7EE001AB8EEC00A30EEC00ADFED5D
:100420000F0A20EE200AFCEEC00A10EE900AC0F37C
:10043000080000EE900A01EB8000F8EE600A90EDF3
:10044000011A70EE600A90ED000A71EEE01A21EEDA
:10045000800A00EE810A704783F9223E00000044C2
:1004600008F5030801804280436070472DE9F04F92
:1004700082B0466853680193058847884B880020FE
:1004800000900888874201BFB2F800C065455288D5
:1004900093421EBF6FF0020002B0BDE8F08F9FEDE7
:1004A000412A4FEA970EC7F3400B00BFDDE9000277
:1004B00002EB800A4A6898464FF00009B0EE420A03
:1004C000B4465FEA0E0025D092ED001ADCED001A6A
:1004D00002EB8302DCED010A01EE810A92ED001AC3
:1004E00002EB8302401ED2ED001A02EB830200EE03
:1004F000810A9CED021ADCED030A00040CF1100CD9
:10050000000C01EE210A92ED001A02EB830200EECC
:10051000810AD9D117F0030026D0ACF10404A2EB74
:10052000830210F0010F08D002EB8302D4ED010A20
:1005300092ED001A241D00EE810A5FEA0B0013D031
:1005400002EB830CD4ED010A9CED001A02EBC3020E
:10055000401E00EE810AD4ED020A92ED001A04F169
:10056000080400EE810AEBD109F10100AAEC010AAE
:100570001FFA80F9486800EB8902A8F101001FFA10
:1005800080F8B8F1000F99D1009806EB870618445F
:1005900080B20090681E05042D0C87D102B00020A7
:1005A000BDE8F08F0000000091ED000AD1ED010AD6
:1005B000D0F814C030EE001A70EEA00A0088B6EE33
:1005C000000A431E71EE201A71EE600A0CF1080059
:1005D00001EBC30C61EE801A60EE800A0831C2EDB7
:1005E000001AC2ED010A08329CED003A91ED001AA2
:1005F000DCED010AD1ED011A73EE413AD0ED002A8B
:1006000090ED012A30EEA14A62EEA34A31EE031AC0
:1006100062EE233A71EEE00A22EE042A31EE241A49
:1006200062EE842A70EEA30A083031EE021A083115
:1006300070EEE20AACF1080C21EE001A60EE800ABE
:1006400082ED001AC2ED010A08325B1ECCD1704760
:10065000D1ED000A91ED011AD0F814C0008870EEB7
:10066000811A70EEC10AB6EE000A431E61EE801ACE
:1006700060EE800A0CF10800C2ED001AC2ED010A1A
:1006800001EBC30C01F1080102F1080208BF704739
:10069000DCED010A9CED003A91ED002A91ED011A82
:1006A00090ED004A72EE431AD0ED013A71EE202A25
:1006B00032EE032A64EE214A63EEA11A71EE600A5B
:1006C00023EEA25A32EE642A64EE222A70EEA10AC8
:1006D000083032EE452A083170EEE20AACF1080C1F
:1006E00022EE002A60EE800A82ED002AC2ED010AA5
:1006F00008325B1ECCD170472DE9F0410446008AD8
:100700001D004FEA500016460F4620800AD02046B2
:10071000FFF79EFF2A4631462046BDE8F0410123FF
:1007200000F082BC01232A46204600F07DFC3246C0
:1007300039462046BDE8F04136E700004A0800236C
:1007400002800182B2F5807F31D008DC102A4FD0C0
:10075000202A45D0402A3BD0802A31D008E0B2F58B
:10076000007F1BD0B2F5806F0FD0B2F5006F03D0C1
:100770004FF0FF33184670474FF46E628281214A72
:100780008260214A2149426039E04FF4E16282816E
:100790001F4A82601F4A2049426030E04FF4E072F5
:1007A00082811E4A82601E4A1E49426027E04FF441
:1007B000DC7282811C4A82601C4A1D4942601EE034
:1007C000D02282811B4A82601B4A1C49426016E08B
:1007D000382282811A4A82601A4A1B4942600EE01E
:1007E00030228281194A8260194A1A49426006E021
:1007F00014228281184A8260184A19494260416174
:10080000B8E70000C85703083000030808B503081C
:10081000B849030830E00208089503083846030881
:1008200030D0020808850308C842030830C802080F
:10083000087D03082841030830C40208087903082A
:10084000B840030830C2020808770308584003087C
:1008500030C102080876030830400308B0C002081F
:100860008875030870B44FF0000CB0EC010A4E1EFE
:100870006446B50831D000BFD0ED000A90ED011AF2
:100880000830B4EEE00AF1EE10FA3CBFB0EE600AB8
:100890000CF10104F0EC010AB4EEC10AF1EE10FA19
:1008A0003CBFB0EE410A0CF10204B0EC011AB4EE08
:1008B000E00AF1EE10FA3CBFB0EE600A0CF103045E
:1008C000B4EEC10AF1EE10FA3CBFB0EE410A0CF1F1
:1008D00004046D1E0CF1040CCED106F0030C5FEA8B
:1008E0000C0617D0B6F1004F19D2002EC8BF002554
:1008F00010DD00BFD0ED000AF4EEC00AF1EE10FAF0
:1009000004DD4C19B0EE600AA4EB0C04001D6D1C54
:10091000761EEFD182ED000A1C6070BC7047F0ECCF
:10092000010AB4EEE00AF1EE10FA3CBFB0EE600A44
:10093000A1EB0C04BCF1010CF1D1EBE79FED220A15
:100940008B0812D090ED002A90ED011AD0ED020A2A
:1009500030EE020AD0ED031A10305B1E30EE010AB1
:1009600030EE200A30EE210AECD111F003031AD048
:10097000B3F1004F20D2002B15DD001F13F0010F43
:1009800004D0D0ED010A001D30EE800A5B080AD0C9
:10099000D0ED010A30EE800AD0ED020A08305B1E6D
:1009A00030EE800AF4D100EE901AF8EE600A80EE84
:1009B000201A82ED001A7047F0EC010A5B1E30EE3F
:1009C000800AF9D1EFE7000000000000930813D07F
:1009D000D0ED001A90ED011AD0ED020A90ED030A55
:1009E000C1ED001A81ED011AC1ED020A81ED030A81
:1009F000103010315B1EEBD112F0030208BF7047BC
:100A0000B2F1004F1DD2002AD8BF7047001F091F46
:100A100012F0010F05D090ED010A001D81ED010AD1
:100A2000091D520808BF704790ED010A81ED010AC7
:100A300090ED020A083081ED020A0831521EF3D10E
:100A40007047B0EC010A521EA1EC010AF9D17047BF
:100A50002DE9F04106462DED028B8C460088736827
:100A600001EB80044508274601EB850004EB850275
:100A70005FEA95087DD000BFD1ED003AD4ED001AB1
:100A800091ED012A94ED013A73EEA16A91ED024ACB
:100A900091ED031AD4ED022AD4ED035A90ED008AA9
:100AA00090ED017A90ED020A90ED036A92ED005A02
:100AB000D2ED014AD2ED027AD2ED030AC1ED006A0D
:100AC00072EE036A73EEE13A74EEC71AC1ED016A81
:100AD00074EE226A74EE622A37EEC04AC1ED026AF1
:100AE00071EE256AC1ED036A72EE436A31EE652A42
:100AF00038EE051A35EE483A80ED001A37EE241A22
:100B000080ED011A30EE271A80ED021A36EE201A17
:100B100080ED031A30EEC61A93ED000AD3ED010AF8
:100B200063EE804A26EEA05A66EE805A63EEA03A43
:100B300074EE854A75EEE33AC4ED004A63EE204A4E
:100B4000C4ED013A61EE803A61EEA00A23EE000A9C
:100B500074EEE31A30EE800AC2ED001A82ED010A4B
:100B600093ED020AD3ED030A62EE803A22EE203AB8
:100B700000E024E062EEA01A22EE002A73EE832A3F
:100B80001030103172EE611AC4ED022A24EE202AD0
:100B9000C4ED031A61EE001A61EE200A24EE000A89
:100BA000103332EE611A103430EE800A82ED021AF0
:100BB00082ED030A1032B8F101087FF45DAF2946D7
:100BC00002236046726800F0D5FA72682946BDECCF
:100BD000028B3846BDE8F041022300F0CBBA2DE984
:100BE000F34F2DED048B87B00B980088470801EB7D
:100BF000870000EB870606EB8705CDE90056DDF898
:100C00002C80A5F1040C0CEB8703CDE902014FEA1F
:100C10005709D8F804800427CDE90497D1ED000ADC
:100C200096ED000A90ED011A95ED013A70EE802ADA
:100C300070EEC03AD1ED010A96ED010A041F321F91
:100C400030EE802A70EEC01A31EE230AD0ED000A91
:100C500032EE415A33EEC11A30EE434A71EEE04AA9
:100C600095ED000A70EEA11A35EE435A74EE805AE3
:100C700072EEE04A70EEA20A71EEC01A31EE031A6B
:100C800074EEC04A30EE800A062708F1080A81EDAA
:100C9000000A90ED010AD5ED010A08F1100B30EEC3
:100CA000020A08F1180830EE200A81ED010A80EDF1
:100CB000004AC0ED015AC6ED004A86ED015A85EDA5
:100CC000001AC5ED011ADDF810900830083108351A
:100CD0000836A9F102095FEA590900F0078100BF4F
:100CE000D1ED000A96ED000AD0ED011AD5ED014ACA
:100CF00030EE802A30EEC05AD1ED010A96ED010A9D
:100D000070EE802A30EEC01A31EE850AD5ED000A69
:100D100030EE644A90ED000A31EE403A30EE011AAE
:100D200073EE205A32EE403A30EE020A31EE601A8B
:100D300073EE603A30EE200A32EEE13A75EE611A57
:100D400081ED000A90ED010AD5ED010A33EE643A17
:100D500030EE220A71EEA41A30EE200A81ED010A6B
:100D6000D4ED002ADCED004A54ED010A1CED010A25
:100D700032EEA47A32EEE49A72EEE42A52ED018A5F
:100D800070EE807A30EEC02A72EEE82AD2ED000AC8
:100D900093ED000A13ED018A30EEC05A72EE886AB4
:100DA00077EEE82A35EE026A32EEC85A77EE602A0C
:100DB00072EEC04A70EEC02A70EE870A72EEC22A46
:100DC00030EE800A38EE682A84ED000A12ED010A3E
:100DD00053ED010A32EE492A30EE270A30EE200A9E
:100DE00004ED010A9AED000ADAED010A64EE007AD8
:100DF00025EEA07A65EE805A24EE204A37EE877AF7
:100E000035EEC44A80ED007A80ED014A26EEA04A14
:100E100066EE005A66EE200A26EE800A083034EEAE
:100E2000654A083130EE800A82ED004A083C02ED46
:100E3000010A9BED000ADBED010ADDF814E023EE68
:100E4000804A63EE205A23EE003A63EEA03A083A55
:100E500034EE254A0BEB8E0B33EE633A86ED004AF7
:100E60000AF1080A86ED013AB1EE643A083663EEFB
:100E7000003A25EE203A25EE000A64EEA00A33EE91
:100E8000C33A30EEC00A8CED003A0CED010A98ED41
:100E9000000AD8ED010A08EB870861EE803A21EEDE
:100EA000203A21EE001A61EEA01AACF1080C33EEE4
:100EB000833A31EE611A85ED003A62EE801A85EDD3
:100EC000011A22EE201A62EEA00A22EE000A08356C
:100ED00031EE611A30EE800A83ED001A03ED010A4B
:100EE000083BB9F101097FF4FBAE00BFD1ED000A68
:100EF00096ED000A91ED011AD0ED015A30EE802AEC
:100F000070EEC00A96ED010A95ED015A042371EEC8
:100F1000001A71EE404A35EEA00A90ED001A31EE4B
:100F2000E54A70EEE50A30EE453A95ED000A34EEFA
:100F3000454A30EE855A74EEC12A72EE413A71EE9E
:100F4000240A31EE021A72EE802A73EEC03A70EE75
:100F5000C00A31EE000A81ED000A90ED010A95ED1C
:100F6000011A30EE210A30EE010A81ED010A9AEDF4
:100F7000000A9AED011A63EE001A22EE812A22EE8F
:100F8000800A23EE011A71EE821A30EE410AC0ED9A
:100F9000001A80ED010A9BED000A9BED011A63EE39
:100FA000801A24EE012A24EE000A23EE811A71EE43
:100FB000821A30EE410AC6ED001A86ED010A98ED5C
:100FC000010A98ED001A60EE801A25EE012A60EE03
:100FD000810A25EE000A32EE211A30EEC00A85EDB4
:100FE000001A85ED010A0B984268DDE9030100F063
:100FF000C1F80B98042304994268029800F0BAF8EB
:101000000B98042304994268019800F0B3F80B98F8
:10101000049904234268009807B0BDEC048B02B029
:10102000BDE8F04F00F0A6B82DE9F04104889846DD
:1010300017460D460646012A20D1281DF4B1A0F11D
:10104000080114F0010F06D091ED020AB1EE400A3A
:1010500081ED020A08315FEA540C0FD091ED020ACB
:10106000B1EE400A81ED020A91ED040AB1EE400AA8
:1010700081ED040A1031BCF1010CEFD1B4F5807F91
:101080001BD008DC102C13D0202C16D0402C19D0EB
:10109000802C0DD01CE0B4F5007F13D0B4F5806F28
:1010A00006D0B4F5006F08D0B4F5805F0AD00FE029
:1010B00029463046FFF7CCFC0AE029463046FFF7C8
:1010C0008EFD05E0214601232846726800F052F8A3
:1010D000B8F1000F04D0B1892846B268FFF754F880
:1010E000012F18BFBDE8F08100EE104AB7EE001ADC
:1010F000002CF8EE400A81EE200A08BFBDE8F0811E
:10110000A5F1080014F0010F0ED0D0ED020A60EE38
:10111000800AC0ED020AD0ED030AF1EE600A60EE2B
:10112000800AC0ED030A0830610808BFBDE8F081FD
:10113000D0ED020A60EE800AC0ED020AD0ED030A8B
:10114000F1EE600A60EE800AC0ED030AD0ED040AF9
:1011500060EE800AC0ED040AD0ED050AF1EE600AE7
:1011600060EE800AC0ED050A1030491EE0D1BDE8EE
:10117000F08100002DE9FF4F2DED108B82B09FED27
:10118000FEFA0B461C46DB084FF0000C0CEB030587
:1011900005EB030808EB030909EB030606EB030A5A
:1011A00000EBCC0700EBC60697ED001AD6ED000A5F
:1011B0000AEB030B00EBC50500EBCA0A31EE200A6F
:1011C00071EE601A95ED002ADAED000A0BEB030EC2
:1011D00000EBC80832EE201A00EBCB0B32EE602A8F
:1011E000D8ED002ADBED000A00EBC90900EBCE0EBA
:1011F00099ED003A9EED004A72EEA03A72EEE02AB6
:1012000073EE040A33EE443A70EE636A70EE233AEA
:1012100031EE600A71EE200A33EEA01A73EEE00A96
:1012200087ED001AC6ED000A97ED011AD6ED010A06
:10123000D5ED013A98ED014A31EE206A71EE600A6F
:101240009AED011A99ED015A73EE814A73EEC13A93
:101250009BED011A34EE017A34EE411A9EED014AFB
:1012600075EE045A35EE444A36EE475A36EE076AB2
:1012700034EEE57A74EEA54A76EE245A76EE644AA8
:10128000C7ED015AC6ED014A76EE874AC8ED004A1D
:1012900076EEC74ACBED004A75EE404A35EE000ABD
:1012A000C8ED014A8BED010A32EE430A32EE032A01
:1012B00020EE0F0A62EE0F4A33EEC42AA4448C4596
:1012C00022EE0F3A33EE842A30EEC34A62EE0F3A32
:1012D00030EE833A31EEC02A31EE800A71EE630AB5
:1012E00031EE231A72EEE41A72EEA42A70EE013A7D
:1012F00030EE410AC5ED003A8EED000A32EE200ACA
:101300008AED000A32EE600A89ED000A33EE620AC5
:1013100085ED010A33EE220A8EED010A34EE610AF0
:101320008AED010A34EE210A89ED010AFFF42EAF9D
:10133000082B3FBF02B0BDEC108B04B0BDE8F08FAE
:101340004FF0000CCDF804C04FF0010CCDF800C0F8
:10135000DDF804C0159DAC444FEA8C0505EB0C0785
:10136000CDF804C007EB0C094FEA4C0808EB0C065B
:1013700009EB0C0A02EBCC0C02EBC80802EBC60628
:1013800002EBC50502EBC70702EBC90902EBCA0A6B
:101390009CED00DA9CED018AD8ED00CA96ED00CAFA
:1013A000D5ED00BA97ED00BAD9ED00AADAED008AC2
:1013B000D8ED017A96ED01AA95ED017AD7ED016A93
:1013C00099ED016ADAED019ADDF800C00CEB030734
:1013D000FD1805EB030A0AEB030808EB030606EB0E
:1013E000030B00EBCC0900EBC808D9ED000A98ED1F
:1013F000000A00EBC70700EBC606D7ED001A96ED12
:10140000001A70EE803A0BEB030E70EEC00A31EE5C
:10141000810A00EBC50500EBCB0B31EEC11AD5ED0F
:10142000001A9BED002A00EBCA0A00EBCE0E31EE4B
:10143000824A71EEC21A9AED002ADEED002A32EEDF
:10144000223A32EE622A73EEC42A73EE843A30EE08
:10145000435A30EE030A33EE803A73EEC0DA89ED78
:10146000003A99ED010A98ED013AD7ED013A95ED70
:10147000014A70EE03EA30EE433A96ED010A9AED26
:1014800001EADEED014A33EE809A73EEC03A9BED3D
:10149000010A74EE005A34EE404A3EEE240A7EEE13
:1014A000644A3EEEE5EA7EEEA55A79EE40EA39EE70
:1014B000009A32EEAE0A72EEEE2A75EE89EA35EE49
:1014C000C99A7EEE455AC9ED01EA3EEE055A2BEE69
:1014D000ADEA67EE09EA2BEE899A67EE2DDA3EEE69
:1014E0002EEA39EE6D9A88ED00EA67EEA5DA88ED0E
:1014F000019A2CEE809A6CEEA55A27EE800A39EEFE
:101500002D9A35EEC00A85ED009A66EE055A85EDF6
:10151000010A2AEEA20A2AEE855A66EE222A30EE47
:10152000250A8BED000A35EE620A73EEA42A8BEDD4
:10153000010A31EE420A31EE021A33EEE42A62EE7B
:101540008F3A20EE0F0A21EE0F1A22EE0F2A70EECC
:10155000C02A30EE800A71EEC10A71EE811A33EEB4
:10156000421A33EE022A34EE633A34EE234A70EE26
:10157000043A30EE444A01E0F304353F72EE834A08
:1015800072EEC32A32EE613A32EE210A71EE601A2F
:1015900071EE200A2DEE232A28EE031A2DEE033ACF
:1015A00068EE233AA44432EE011A28EE842A8C45D0
:1015B00087ED001A33EE631A29EE843A87ED011A9B
:1015C00029EE801A28EE800A32EE011A30EE430A24
:1015D00026EEA42A8EED001A8EED010A2BEE240AC7
:1015E00026EEA11A6BEE211A30EE010A2CEE221A19
:1015F00086ED000A31EEC20A6AEE221A86ED010A71
:101600002AEE200A6CEE200A31EE000A8AED000A6A
:1016100030EEE10A8AED010AFFF4D8AEDDF800C031
:101620000CF1010CCDF800C063453FF691AEDDF83A
:1016300054C04FF6FF7404EACC0CCDF854C0072B0D
:101640003FF6A0AD02B0BDEC108B04B0BDE8F08F4A
:10165000D2B201E000F8012B491EFBD270470022F4
:10166000F6E710B513460A4604461946FFF7F0FFA1
:10167000204610BD10B5002200E0521C835C8C5C3B
:10168000A34201D1002BF8D1D8B2E1B2401A10BD6B
:1016900000F0004230F000400AD0C10D01F5607149
:1016A000C0F3160042EA0151C208400711437047D7
:1016B00000200146704730B50B460146002020222D
:1016C000012409E021FA02F59D4205D303FA02F54F
:1016D000491B04FA02F52844151EA2F10102F1DCAF
:1016E00030BD2DE9F05F0546002092469B468846B6
:1016F0000646814640241BE028464146474622468E
:1017000000F0F9F953465A46C01A914110D31146D8
:101710001846224600F0E0F92D1A67EB01084F4603
:1017200022460120002100F0D7F917EB00094E41B5
:10173000201EA4F10104DFDC484631462A46434618
:10174000BDE8F09F2DE9FE4F804681EA0300C00FFF
:101750000C46009021F0004123F00045B8EB020058
:10176000A94105D24046214690461C460B460246FA
:1017700023F00040104347D0270DC7F30A00C3F3FE
:101780000A510290401A019040286BDAC3F313000B
:1017900040F4801B0098924620B10023D2EB030A4C
:1017A00063EB0B0B01985946C0F14002504600F024
:1017B00093F906460D4650465946019A00F0ABF99A
:1017C00010EB08006141002487EA115284EAE773B4
:1017D0001A4340D0009A62B3019A012A4FEA075295
:1017E00015DC001B61EB02014FF0004202EA0752D8
:1017F000CDE90042001C41F5801132462B4600F035
:10180000ABF903B0BDE8F08F40462146F9E7001B75
:1018100061EB0201001C41F5801300185B412018A8
:10182000A2F5001747EB030140EAD570B6196D41E8
:1018300011E06D084FEA360645EAC0754FEA0752D7
:10184000001B61EB0201001C41F5801149084FEAC1
:1018500030000019514132462B4603B0BDE8F04F2D
:1018600000F06BB90098012240000023D0EB020287
:1018700063EBE073009821464FEAE074B8EB000098
:1018800061EB0401E9E783F000435BE781F000418D
:1018900058E72DE9FE4F81EA030404F0004421F0EB
:1018A000004100944FF0000B23F0004350EA010484
:1018B0005ED052EA03045BD0C3F30A54C1F30A5565
:1018C0002C44A4F2F3340194A0FB0254C1F313019D
:1018D00041F48011C3F3130343F4801301FB02446A
:1018E00000FB034E840A970A44EA815447EA83576F
:1018F000A4FB076802958D0A05FB07854FEA932C28
:1019000004FB0C542705029D4FEA065847EA163798
:10191000B5EB08056EEB070C870E920E47EA8117B0
:1019200042EA8312A7FB0201B6EB0B0164EB000451
:101930002B0D43EA0C335E1844EB1C50DA4651463B
:10194000E7FB0201C5F313044FEA0B3343EA1453D8
:101950004FEA0432019C43EA0603A4F10C0402940A
:10196000009CCDE900B400F0F7F803B0BDE8F08FBB
:1019700000200146F9E72DE9F04D81EA030404F067
:10198000004B21F0004514464FF0000A23F00041BF
:1019900050EA050220D054EA01021DD0C5F30A57CF
:1019A0000246C5F31303C1F31300C1F30A5640F412
:1019B000801543F48013A7EB0608101BD64608F2E7
:1019C000FD3873EB050002D308F1010801E092181D
:1019D0005B41B8F1000F03DA00200146BDE8F08D4D
:1019E00000204FF48011064684460EE0171B73EB6F
:1019F000050705D3121B63EB050306434CEA010CF4
:101A000049084FEA300092185B4150EA0107EDD1D6
:101A100052EA030012D082EA040083EA0501084377
:101A200005D0101BAB4106D20122002306E00022A4
:101A30004FF0004302E06FF0010253101AEB060072
:101A40004CEB085110EB0A0041EB0B01BDE8F04DE7
:101A500000F073B8C1F30A52C1F3130140F2FF332F
:101A600041F480119A4202DA00200146704740F2A8
:101A700033439A42A2F2334202DC524200F03BB8B6
:101A800000F02AB830B5041E71F1000404DB4FF0F9
:101A90000044404264EB0101141E73F1000405DBB5
:101AA0001C464FF00043524263EB0403994208BFC7
:101AB000904230BD064C074D06E0E06840F001035F
:101AC00094E8070098471034AC42F6D3FEF7C0FB09
:101AD00084FD0308A4FD0308202A04DB203A00FA51
:101AE00002F1002070479140C2F1200320FA03F375
:101AF000194390407047202A04DB203A21FA02F073
:101B00000021704721FA02F3D040C2F12002914037
:101B1000084319467047202A06DBCB17203A41FAC2
:101B200002F043EAE07306E041FA02F3D040C2F16A
:101B30002002914008431946704710B5141E73F1F6
:101B4000000408DA401C41F1000192185B411A437D
:101B500001D120F0010010BD2DE9F04D92469B46C9
:101B600011B1B1FA81F202E0B0FA80F2203290466F
:101B7000FFF7B2FF04460F4640EA0A0041EA0B01B4
:101B800053465A46084313D0114653EA010019D070
:101B9000C8F140025046FFF7AEFF05460E465046DC
:101BA00059464246FFF798FF084305D0012004E05C
:101BB00020463946BDE8F08D0020054346EAE07630
:101BC0002C4337430A986305E40AA0EB080000227F
:101BD000FD0A44EA47540A3002D500200146E9E7ED
:101BE000010510196941DDE9084500196941BDE8A1
:101BF000F04DA2E721B1826842F00102826003E069
:101C0000826822F001028260704700000021084AC9
:101C10001168084A1140D0E900231A4383681A4327
:101C2000C3681A431143044AC2F804137047000002
:101C300004230140E030FCFF0020014021B1826814
:101C400042F48072826003E0826822F480728260D3
:101C50007047000000B59FB00121042001F0B2FDE3
:101C60000121880501F0AEFD0121080201F0DAFD35
:101C70000121022001F0B6FD20201D9003208DF8E7
:101C8000780000208DF87B001DA9454801F018FC64
:101C900000200E9043480F90434810900020119070
:101CA0004FF4FA501290002013904FF4806014907B
:101CB0004000159080001690401117904002189037
:101CC0000020199001201A9000201B901C900EA952
:101CD000364801F0C9FB38208DF8000000208DF84F
:101CE00001008DF8020001208DF80300684601F024
:101CF00023FD2F492D4801F071FA002210212B48B5
:101D000001F094FB0121294801F09CFA0020049085
:101D10004FF48030059000200690079004A8FFF74C
:101D200075FF002008908DF824008DF825004FF0F5
:101D300080500A9040100B9000200C9001208DF8EC
:101D4000340008A917484C3800F036F80223012265
:101D50000F2114484C3800F059F8012111484C3833
:101D6000FFF76CFF01210F484C38FFF743FF0920B4
:101D7000029040F21940ADF804000020ADF80C00CC
:101D8000ADF8060001A90B4802F042F820210948ED
:101D900002F032F80021074802F002F81FB000BD3F
:101DA000000802404C200140540000201064024012
:101DB0003D0080100004004030B5024600200023A2
:101DC0005068104C20400D790C6844EA05242043EB
:101DD000506090680C4C2040D1E903542C438D682E
:101DE0002C434D7944EA450420439060D06A20F4A6
:101DF00070000C7D641EE4B2234340EA0350D062BD
:101E000030BD0000FFFEFFFCFDF7FFC0F0B504464B
:101E10000D4600200021092D11DDE068A5F10A061C
:101E200006EB4607072606FA07F18843A5F10A06DE
:101E300006EB460603FA06F10843E0600CE0206971
:101E400005EB4507072606FA07F1884305EB45062B
:101E500003FA06F108432061072A0FDA606B561E69
:101E600006EB86071F2606FA07F18843561E06EB87
:101E7000860605FA06F10843606322E00D2A0FDAB0
:101E8000206BD61F06EB86071F2606FA07F188434C
:101E9000D61F06EB860605FA06F10843206310E01C
:101EA000E06AA2F10D0606EB86071F2606FA07F187
:101EB0008843A2F10D0606EB860605FA06F10843F3
:101EC000E062F0BD00B58FB00020384908700021F5
:101ED000374801F065FF0021364801F0B3F900BF33
:101EE000344801F067FA0028FAD14FF47A513248A9
:101EF000FFF7B5FB2F4801F0B1F9002000902F4803
:101F000001902D480290002003904FF4FA50049065
:101F1000002005904FF480600690400007908000FC
:101F20000890002009904FF400300A9000200B9098
:101F300001200C9000200D900E9069461D4801F084
:101F400093FA1F491B4801F049F901221021194851
:101F500001F06CFA0121174801F074F900211748CB
:101F60004C38FFF747FE012003F0E8F80021134842
:101F70004C38FFF763FE012110484C38FFF75EFE36
:101F800001210E484C38FFF735FE012003F0D6F84A
:101F90000021074801F004FF0021054801F035FF4A
:101FA0000121034801F0FCFE0FB000BD1600002027
:101FB0000004004010640240540000204C20014006
:101FC0003D0080100146022903DA034850F8210041
:101FD000704702A0FCE7000034000020756E6B6EB5
:101FE0006F776E0010B508A002F0ACF941F24821FD
:101FF0000B48FFF734FB80210A48FFF730FB0A4803
:1020000000210160416010BD434E4E206D6F64653C
:102010006C20696E697469616C697A65640D0A0087
:1020200020370120684901202C000020F0B585B040
:1020300004460D4616460027002018E0002112E055
:10204000C0EBC00202EB401204EB820202EB810201
:1020500092ED000A3A467F1C344B03EB820282ED7C
:10206000000A4A1C91B22729EADB411C88B21E28CB
:10207000E4DB01202E49202240F29243CDE90021E9
:1020800002902C4A2C49294803F08CF82B482C4903
:102090009FED2C0A2C4B2D4ACDE90010202124481D
:1020A00002F0F4FF01202A4910222023CDE900216B
:1020B0000290284A28491E4803F074F82748284906
:1020C0009FED200A274B284ACDE900101021204817
:1020D00002F0DCFF0020254902221023CDE9002177
:1020E0000290234A23491A4803F05CF802221F4950
:1020F000084603F0F5F803AB04AA02211B48FEF7DB
:10210000B1FB039828709DED040A86ED000A9DED51
:10211000040ADFED190AB4EEE00AF1EE10FA02D279
:10212000002005B0F0BD0120FBE7000020370120B2
:102130006849012068B40208686B000868B60208A4
:10214000E8B502086F12833A68B50208E8B40208DD
:10215000E8490120E8BE0208E8B60208E8BF020824
:10216000A8BF020868BF020828BF02082C00002090
:10217000A8C0020828C002089A99193F10B52DED91
:10218000048BB7EE000AB0EE408AB6EE080AF0EE15
:10219000408AB6EE000AB0EE409A3D21334800F086
:1021A00051FC3D21324800F04DFC002059E0002157
:1021B00053E000EB800202EBC0022E4B03EB8202E5
:1021C00002EB810292ED000AF7EE000A20EE200AEF
:1021D000C0EBC00202EB4012274B03EB820202EB82
:1021E000810282ED000A00EB800202EBC0021F4B6D
:1021F00003EB820202EB810292ED000AF6EE080A7E
:1022000020EE200AC0EBC00202EB40121A4B03EB97
:10221000820301F10D0203EB820282ED000A00EB62
:10222000800202EBC002124B03EB820202EB81023E
:1022300092ED000AF6EE000A20EE200AC0EBC00282
:1022400002EB40120C4B03EB820301F11A0203EB89
:10225000820282ED000A4A1C91B20D29A9DB411CC1
:1022600088B23D28A3DBBDEC048B10BD20D200203A
:1022700084DE0020BCC50020ACFF0020F0B5054680
:102280000E4613460227002148E0002242E09FED5F
:10229000251AB0EE410A9FED231AF0EE410A6FF0C5
:1022A000010027E001EB000C0FFA8CF4002C1FDB7F
:1022B0009C421DDA04EB840C0CEBC40C05EB8C0C7B
:1022C0000CEB820CDCED001A01EE100AB8EEC12A0C
:1022D000B0EE401A02EE211AB0EE410A00FB00FCFB
:1022E00001EE10CAB8EEC11A31EE201AF0EE410A22
:1022F000441C20B20228D5DD80EE201A01EB8100BB
:1023000000EBC10006EB800000EB820080ED001ABC
:10231000501C82B20D2ABADB481C81B29942B4DB50
:10232000F0BD00000000000070B52DED068B5CA034
:1023300002F008F89FED630AF0EE408A9FED610A13
:10234000F0EE409A00201BE05F4901EB800191ED27
:10235000000A30EE280AF0EE408A5B4901EB80016A
:1023600091ED000AB4EEE90AF1EE10FA06DD5649E5
:1023700001EB800191ED000AF0EE409A411C88B219
:102380003D28E1DB9FED510A88EE809AB7EE080AFE
:1023900029EE008A9FED4E0AB4EEC08AF1EE10FAE3
:1023A00003D29FED4B0AB0EE408A9FED4AAA052565
:1023B0003D214948FFF753F900201AE0424901EB5B
:1023C000800191ED000AB4EEC80AF1EE10FA0BDCC0
:1023D000424901EB800191ED000ADFED3E0AB4EEC7
:1023E000E00AF1EE10FA02DD01213B4A1154411CD2
:1023F00088B23D28E2DB012013E0411E364A525CE0
:10240000354B411C595C8A4209D119460A5C411E70
:10241000595C8A4203D0411E1A46515C1154411C3A
:1024200088B23C28E9DB002400200EE02A49095C40
:1024300041B1611C8CB2052C05DB011B491C284AEB
:10244000118004E00024411C88B23D28EEDB00BF6F
:1024500000243C2014E02049095C71B1611C8CB25D
:10246000052C0BDB0119491E1E4A118011460988F3
:102470003D2901DB3C21118006E00024411E88B289
:10248000174909888842E6DC00BF164802881448CC
:10249000018815A001F056FFBDEC068B70BD000051
:1024A0005374617274696E6720656E64706F696ED3
:1024B0007420646574656374696F6E2E2E2E0D0A28
:1024C0000000000000000000D4C30020000074429F
:1024D0000AD7233CCDCC4C3E6CFF0020C8C4002062
:1024E0002400002026000020537065656368206486
:1024F000657465637465642066726F6D20667261D1
:102500006D6520256420746F2025640D0A0000008D
:1025100070B504460D462946204600F0F7FAFFF74D
:1025200003FF00F003F8FFF729FE70BD2DE9F0412D
:102530002DED028BADA001F005FF00253EE14FF629
:10254000FF7000EAC51707F58070B0F5FA5F04DD8B
:102550002946B3A001F0F6FE2EE1BF4901EB87004A
:102560004FF48072BD49FEF731FA4FF48073BB4AD5
:10257000BB491046FDF784FE00200BE0B74901EB94
:10258000800191ED000AB74901EB800181ED000A5D
:10259000411C88B2FF28F1DD4FF4807008E09FED08
:1025A000B20AB04901EB800181ED000A411C88B2FA
:1025B000B0F5007FF3DB0023AC4AAA49AC48FEF734
:1025C0009BF800202CE010B1B0F5807F0CD1A74A19
:1025D00002EBC00191ED000A20EE000AA54901EBD3
:1025E000800181ED000A19E0A04A02EBC00191EDE3
:1025F000000A20EE000A4100491C02EB8101D1EDE6
:10260000000A4100491C02EB810191ED001A00EE25
:10261000810A984901EB800181ED000A411C88B2D2
:10262000B0F5807FCFDD002457E09FED8F0A924800
:1026300000EB840080ED000A002026E0C4EBC40219
:1026400002EB44128D4B03EB420232F81010C4EB44
:10265000C40202EB44128A4B03EB820202EB8002BB
:10266000D2ED000A834A02EB810292ED001A824AFF
:1026700002EB840292ED000A00EE810A7E4A02EB30
:10268000840282ED000A411C88B27E4931F81410A0
:102690008142D3DC784800EB840090ED000ADFED46
:1026A0007A0AB4EEE00AF1EE10FA06D29FED760A4D
:1026B000714800EB840080ED000A6F4800EB840055
:1026C000D0ED000AB0EE600A01F054FF6A4800EB5A
:1026D000840080ED000A601C84B21A2CA5DB002463
:1026E00067E09FED610A05EB850000EBC5006749D7
:1026F00001EB800000EB840080ED000A002639E049
:1027000000EE104AB8EE400ADFED610A60EE200AE2
:1027100000EE106AB8EE400AB6EE001A30EE010A7A
:1027200020EE800AF3EE0A0A80EE201AB0EE418A0B
:10273000B0EE480AFDF75AFE05EB850000EBC50038
:10274000524901EB800000EB8400D0ED000A4A48BA
:1027500000EB860090ED001A41EE000A05EB8500C3
:1027600000EBC50001EB800000EB8400C0ED000A27
:10277000701C86B21A2EC3DB9FED460A01F0BAFF29
:1027800005EB850000EBC500404901EB800000EB44
:102790008400D0ED000A20EE200A05EB850000EB56
:1027A000C50001EB800000EB840080ED000A601C96
:1027B00084B20D2C95DB00BF681C85B23D2DFFF661
:1027C000BEAE3D21314800F03DF93D2232492F484F
:1027D000FFF754FD3D2231492F48FFF74FFD30A050
:1027E00001F0B0FDBDEC028BBDE8F0815374617265
:1027F00074696E67204D4643432066656174757247
:10280000652065787472616374696F6E207769748E
:10281000682064656C7461732E2E2E0D0A00000012
:102820005761726E696E673A204672616D65202548
:1028300064206578636565647320646174612072E7
:10284000616E67652C20736B697070696E67204DCF
:102850004643430D0A000000D43E0020D4BB0020B4
:10286000D4BF0020E8EA002000000000E8F20020C9
:1028700054FF0020E8FA0020ECFE00206853000816
:10288000545B00082C6B0008FFE6DB2EBCC5002063
:10289000DB0F4940D9899D3D20D2002084DE0020F5
:1028A0004D46434320666561747572652065787492
:1028B00072616374696F6E20776974682064656CF7
:1028C00074617320636F6D706C657465640D0A00CC
:1028D00070B52DED048B0446B0EE408A2046FFF71C
:1028E00071FB05469FED140A28EE000A10EE101A3F
:1028F0000846FEF7CDFE41EC190B53EC192B294687
:102900000EA001F01FFD16A12846FEF7B3FE28B960
:1029100014A001F017FD00F0BDFE09E019A1284642
:10292000FEF7A8FE20B918A001F00CFD00F0C8FECB
:10293000BDEC048B70BD00000000C8425265737589
:102940006C743A2025732C20436F6E666964656E43
:1029500063653A20252E326625250D0A0000000009
:1029600061646400457865637574696E67206164AD
:10297000646974696F6E206F7065726174696F6EDF
:102980000D0A000073756200457865637574696EA1
:1029900067207375627472616374696F6E206F7003
:1029A00065726174696F6E0D0A00000010B52DED3F
:1029B000028B00241EE000EE104AB8EE400ADFED64
:1029C000140A20EE200ADFED130A80EE201AB0EE82
:1029D000418AB0EE480AFDF709FDDFED0F0A9FEDD1
:1029E0000F1A41EE400A0E4800EB8400C0ED000AC9
:1029F000601C84B2FF2CDEDD4FF400710948FDF746
:102A00009DFE09A001F09EFCBDEC028B10BD0000F4
:102A1000DB0FC94000007F43713D0A3F1F85EB3E3D
:102A2000D4BF002054FF0020415352206D6F6475C5
:102A30006C6520696E697469616C697A65640D0AF8
:102A40000000000030B58DB005460C4634216846C4
:102A5000FEF705FE00202DE0002117E001EB8102CA
:102A600002EBC10205EB820202EB800292ED000A4A
:102A70006A4602EB8002D2ED000A30EE200A6A4676
:102A800002EB800282ED000A4A1C91B2A142E5DB12
:102A9000694601EB8001D1ED000A00EE104AB8EE64
:102AA000400A80EE801A694601EB800181ED001A30
:102AB000411C88B20D28CFDB002122E000201CE061
:102AC00001EB810202EBC10205EB820202EB800204
:102AD00092ED000A6A4602EB8002D2ED000A30EE67
:102AE000600A01EB810202EBC10205EB820202EBFC
:102AF000800282ED000A421C90B20D28E0DB481CE7
:102B000081B2A142DADB0DB030BD00002DE9F04109
:102B10002DED068B82B007460D4600200CE037F8FD
:102B2000101000EE101AB8EE400A654901EB800162
:102B300081ED000A411C88B2A842F0DBDFED619A0A
:102B40005F48D0ED008A012016E05D4901EB80016D
:102B500091ED009A5A4901EB800191ED000ADFEDF9
:102B6000590A00EEE80A564901EB800181ED000A9E
:102B7000F0EE498A411C88B2A842E6DB52A001F07F
:102B8000E1FB01AA29464E48FDF7D8FE0198FEF761
:102B90007FFD41EC1A0B53EC1A2B52A001F0D2FB33
:102BA00000200FE0464901EB800191ED000ADDEDC8
:102BB000010A30EE600A424901EB800181ED000A12
:102BC000411C88B2A842EDDB4DA001F0BBFB3D21CA
:102BD00054A001F0B7FB002467E04FF6FF7000EA55
:102BE000C41808F58070A84204DD214659A001F000
:102BF000A9FB58E0324901EB88004FF4807262492A
:102C0000FDF7E4FE4FF480735F4A60491046FDF71C
:102C100037FB9FED5F8A002011E05B4901EB8001EB
:102C2000D1ED000A584901EB800191ED001AB0EE98
:102C3000480A00EE810AB0EE408A411C88B2FF28A3
:102C4000EBDD9FED540AC8EE000A534800EB840008
:102C5000C0ED000A0026012015E04B4901EB800180
:102C600091ED000A411E484A02EB8101D1ED000AB4
:102C700020EE200AB5EEC00AF1EE10FA01D2711C66
:102C80008EB2411C88B2FF28E7DD00EE106AB8EE74
:102C9000400ADFED420A80EE201A414800EB840032
:102CA00080ED001A00BF601C84B23D2C95DB3DA076
:102CB00001F048FB02B0BDEC068BBDE8F0810000DE
:102CC000D43E00203333733F5072652D656D7068BC
:102CD0006173697320636F6D706C657465640D0A50
:102CE000000000005369676E616C206D65616E20A5
:102CF00076616C75653A20252E34660D0A00000059
:102D00005369676E616C2070726570726F63657372
:102D100073696E6720636F6D706C657465640D0A0E
:102D2000000000005374617274696E6720667261FE
:102D30006D652070726F63657373696E672C2074A4
:102D40006F74616C206672616D65733A2025640D45
:102D50000A0000005761726E696E673A2046726120
:102D60006D65202564206578636565647320646102
:102D700074612072616E67652C20736B6970706975
:102D80006E670D0A00000000D4BB0020D4BF0020F5
:102D90000000000000008043D4C3002000007F43F7
:102DA000C8C400204672616D652070726F636573E0
:102DB00073696E6720616E64206261736963206667
:102DC0006561747572652065787472616374696F8A
:102DD0006E20636F6D706C657465640D0A00000091
:102DE0002DE9F04106460F4614461D4626A001F087
:102DF000A9FA39463046FFF789FEFFF795FAFFF743
:102E000095FBFFF7BBF900202FE0002129E03D28CA
:102E100018DA272916DAC0EBC00202EB4012254B64
:102E200003EB820202EB810292ED000AC0EBC002CA
:102E300002EB4012204B03EB820202EB810282ED97
:102E4000000A0CE09FED1D0AC0EBC00202EB40122D
:102E5000194B03EB820202EB810282ED000A4A1C4D
:102E600091B22729D3DB411C88B21E28CDDB2A462C
:102E700021461148FFF7DAF8804611A001F062FA06
:102E80004046BDE8F08100005374617274696E675A
:102E900020737065656368207265636F676E69741F
:102EA000696F6E2070726F636573732E2E2E0D0A1C
:102EB00000000000ACFF0020D8240120000000002A
:102EC000537065656368207265636F676E697469C6
:102ED0006F6E2070726F6365737320636F6D706CBB
:102EE000657465640D0A00002DE9F0412DED028B3B
:102EF0005448008848B95448008830B953A001F0BC
:102F000021FABDEC028BBDE8F081FFF737F95CA038
:102F100001F018FA4B4801885EA001F013FA4A4804
:102F2000018861A001F00EFA4748008845490988E8
:102F3000401A401C1FFA80F841465FA001F002FAD7
:102F4000272162A001F0FEF965A001F0FBF93D48E0
:102F500005882CE03B480088291A67A001F0F2F9A7
:102F600000261DE0C5EBC50000EB4510654A02EBED
:102F7000800000EB860090ED000A10EE101A084663
:102F8000FEF786FB41EC180B53EC182B5EA001F00A
:102F9000D9F9262E02DA5EA001F0D4F9701C86B2AF
:102FA000272EDFDB56A001F0CDF9681C85B226483C
:102FB00000888542CEDD57A001F0C4F95AA001F087
:102FC000C1F9204800884FF6FF7101EAC0171E487A
:102FD0000088401C802101EBC01084B2B4F5FA5F78
:102FE00001DD4FF4FA54E11B55A001F0ABF93D4669
:102FF00018E0574800EB850090ED000A10EE101A1B
:103000000846FEF745FB41EC180B53EC182B51A07A
:1030100001F098F9601EA84202DD3DA001F092F98E
:10302000681C85B2A542E4DB35A001F08BF94BA00A
:1030300001F088F94EA001F085F951A001F082F964
:1030400000BF5EE724000020260000204572726F5A
:10305000723A204E6F2073706565636820646574F2
:10306000656374656420666F7220434E4E207472EF
:1030700061696E696E6720646174610D0A00000009
:10308000434E4E5F444154415F424547494E0D0A0D
:10309000000000005350454543485F53544152548B
:1030A0003A25640D0A0000005350454543485F45EA
:1030B0004E443A25640D0A0056414C49445F46523D
:1030C000414D45533A25640D0A00000046454154E0
:1030D0005552455F44494D3A25640D0A00000000F1
:1030E000464541545552455F444154415F4245472E
:1030F000494E0D0A000000004652414D453A2564F4
:103100000D0A0000ACFF0020252E366600000000EE
:103110002C000000464541545552455F44415441FE
:103120005F454E440D0A00005241575F57415645D6
:10313000464F524D5F424547494E0D0A0000000080
:1031400053414D504C45533A25640D0A0000000090
:10315000D43E0020252E3466000000005241575F07
:1031600057415645464F524D5F454E440D0A0000AB
:10317000434E4E5F444154415F454E440D0A0000AA
:10318000434E4E20747261696E696E67206461748B
:10319000612073656E742073756363657373667500
:1031A0006C6C790D0A00000010B50849084800F061
:1031B0000BF950B10549064800F02AF800210548EE
:1031C00000F0EEFD01200449087010BD20800010C1
:1031D0001064024000040040160000200246094B23
:1031E0009A4201D2084801E00648103801F0005325
:1031F0001BB1064B0B40C36002E0044B0B408360E5
:103200007047000010640240006002407D0F7D0F97
:103210000246094B9A4201D2084801E0064810389C
:1032200001F000531BB1064B0B40C36002E0044B9E
:103230000B40836070470000106402400060024051
:103240007D0F7D0F21B1026842F00102026003E0B0
:10325000026822F00102026070470000016821F05C
:10326000010101600021016041608160C160016174
:10327000212141614A49884204D13D21484A103AFE
:1032800091608CE046491831884205D14FF4746151
:10329000434A103A916082E041493031884205D179
:1032A0004FF474113E4A103A916078E03C4948313D
:1032B000884205D14FF07461394A103A91606EE04E
:1032C00037496031884204D13649354A103AD160D5
:1032D00065E033497831884204D13349304A103AA5
:1032E000D1605CE02E499031884204D12F492C4AAC
:1032F000103AD16053E02A49A831884205D14FF0F5
:103300003D51274A103AD16049E02949884204D109
:103310003D21274A083A116041E025491831884289
:1033200005D14FF47461224A083A116037E0204910
:103330003031884205D14FF474111D4A083A1160AA
:103340002DE01B494831884205D14FF07461184A7D
:10335000083A116023E016496031884204D11149CE
:10336000134A121F11601AE011497831884204D1C2
:103370000D490F4A121F116011E00D49903188422A
:1033800004D10A490A4A121F116008E00849A8310D
:10339000884204D14FF03D51054A121F1160704719
:1033A000106002403D000020400F002000003D2042
:1033B00010640240014600200A6802F001020AB1CE
:1033C000012000E00020704770B502460020002474
:1033D0000025124EB24201D2114B01E00F4B103BBF
:1033E000104E0E4036B11E2606EAD124166806EAB3
:1033F000040502E0566906F0800501F000560EB1A2
:103400005C6800E01C68084E344004EA010616B10E
:103410000DB1012000E0002070BD000010640240EA
:10342000006002403C0F3C0F7D0F7D0F10B501F096
:1034300080034BB122B1436943F08003436103E051
:10344000436923F08003436180290BD02AB10368CC
:1034500001F01E042343036004E0036801F01E042E
:10346000A343036010BD000010B500220268134B97
:103470001A40CC680B6823434C6923438C6923436F
:10348000CC6923430C6A23434C6A23438C6A23434D
:103490004C6B23438C6B23431A430260426922F036
:1034A0000702D1E90B3423431A4342610B6943609D
:1034B0004B6883608B68C36010BD00003F801CF0C8
:1034C000F0B50A4600210023002400BF3DE001259D
:1034D00005FA01F3156805EA03049C4234D1056836
:1034E0004F000326BE40B543056015794E00B54038
:1034F0000668354305601579012D02D01579022D36
:1035000016D185684F000326BE40B54385605579C6
:103510004E00B540866835438560456801268E407B
:10352000B5434560456896798E40B6B235434560EF
:10353000C5684F000326BE40B543C560D5794E002F
:10354000B540C6683543C560491C1029BFD3F0BDDE
:10355000F0B5002300244D07ED0E02FA05F3CE105E
:1035600000F1200555F826504E07F70E0F26BE40F5
:10357000B543CF1000F1200646F82750CE1000F1D9
:10358000200555F8265045EA0304CE1000F1200529
:1035900045F82640F0BD0246002013690B400BB1F0
:1035A000012000E0002070470A04826170478161B9
:1035B00070474FF6FF710160002101714171817107
:1035C000C17170470548007830B104480178002087
:1035D000024A1070084670470020FCE71A000020DD
:1035E00010B504210748FFF7D6FF012800D110BD10
:1035F00008210448FFF7CFFF012801D10220F6E798
:103600000020F4E7000002401CB50121084600F04C
:10361000D9F800208DF804000C20009002208DF8CD
:1036200007008DF8050069460548FFF749FF0421AA
:103630000348FFF7BCFF08210148FFF7B8FF1CBD96
:103640000000024010B50F480078401C0D4908707A
:10365000084600780A2813DB002008700A48007822
:103660000A490870FFF7BCFF074908700846007850
:1036700030B90648007818B1044800780449087049
:1036800010BD00001B0000201C0000201D000020B9
:103690001A00002010B54FF400710848FFF77BFFB7
:1036A000012804D141020548FFF77EFF04E04FF4F2
:1036B00000710248FFF77BFF10BD0000000C0240C4
:1036C00010B54FF480610848FFF765FF012804D169
:1036D00081020548FFF768FF04E04FF4806102486B
:1036E000FFF765FF10BD0000000C02401CB5012172
:1036F000082000F067F84FF4C060009001208DF8BA
:10370000040000208DF8060003208DF8050000203D
:103710008DF8070069460748FFF7D2FE4FF40071A5
:103720000448FFF744FF4FF480610248FFF73FFF72
:103730001CBD0000000C024070B5002100230F22C8
:10374000C4781CB3174C246804F4E064C4F5E06446
:10375000C4F30721C1F10404E3B20A4144789C4058
:10376000E1B28478144021430C07210E0E4C0578F9
:103770006155047804F01F050124AC4005786D11F3
:10378000AD0005F1E025C5F8004109E0047804F03A
:103790001F050124AC40054D0678761145F82640FA
:1037A00070BD00000CED00E000E400E080E100E00E
:1037B00002490143024A1160704700000000FA0507
:1037C0000CED00E029B1064A12680243044B1A606E
:1037D00004E0034A12688243014B1A6070470000FC
:1037E0003038024029B1064A12680243044B1A607D
:1037F00004E0034A12688243014B1A6070470000DC
:103800004038024029B1064A12680243044B1A604C
:1038100004E0034A12688243014B1A6070470000BB
:103820002038024029B1064A12680243044B1A604C
:1038300004E0034A12688243014B1A60704700009B
:103840004438024029B1064A12680243044B1A6008
:1038500004E0034A12688243014B1A60704700007B
:1038600024380240F0B50021002200240225002661
:103870000223324F3F6807F00C0121B1042905D023
:10388000082937D105E02E4F076036E02D4F07603D
:1038900033E02A4F3F1F3F68C7F38056274F3F1F33
:1038A0003F6807F03F036EB1264FB7FBF3F7DFF831
:1038B0008CC0ACF1040CDCF800C0CCF3881C07FB16
:1038C0000CF40CE01E4FB7FBF3F7DFF870C0ACF15F
:1038D000040CDCF800C0CCF3881C07FB0CF4174F79
:1038E0003F1F3F68C7F301477F1C7D00B4FBF5F71E
:1038F000076002E0124F076000BF00BF0F4F3F6834
:1039000007F0F0010909104F7A5C0768D74047605B
:103910000A4F3F6807F4E051890A0B4F7A5C476809
:10392000D7408760054F3F6807F46041490B064F59
:103930007A5C4768D740C760F0BD00000838024095
:103940000024F40040787D013C00002000B587B0E1
:1039500001210803FFF766FF01210220FFF732FF74
:103960003820059002208DF8180000208DF81A00EC
:1039700003208DF8190001208DF81B0005A91C48B3
:10398000FFF79EFD052203211948FFF7E1FD0522FF
:1039900004211748FFF7DCFD052211461448FFF704
:1039A000D7FD0020ADF800004FF48270ADF80200A2
:1039B0000020ADF804000220ADF806000120ADF8AB
:1039C00008004002ADF80A003820ADF80C000020D5
:1039D000ADF80E000720ADF810006946054800F06C
:1039E00063F80121034800F045F807B000BD00006E
:1039F000000402400030014070B50546002405E097
:103A0000601CC4B2C82C01DD002070BD02210E482C
:103A100000F03CF80028F3D029460B4800F042F8AB
:103A2000002405E0601CC4B2C82C01DD0020ECE7D6
:103A30000121054800F02AF80028F3D0024800F0E0
:103A40002EF8C0B2E1E700000030014010B5044696
:103A5000074800884FF6C7710840054908800846A6
:103A60000088204308800121014800F003F810BDC0
:103A70000030014021B1028842F04002028004E09F
:103A800002884FF6BF731A4002807047024600203A
:103A900013890B400BB1012000E000207047014664
:103AA000888970478181704710B50022028802F42E
:103AB00041520B884C8823438C882343CC88234372
:103AC0000C8923434C8923438C892343CC8923438A
:103AD0001A430280838B4FF2FF74234083830B8A47
:103AE000038210BD10B588B0044601210846FFF7D7
:103AF00069FE01210220FFF765FE072209213848EF
:103B0000FFF726FD072211463648FFF721FD06A8DC
:103B1000FFF74FFD4FF40070069002208DF81C0057
:103B200003208DF81D0000208DF81E0001208DF867
:103B30001F0006A92A48FFF7C3FC06A8FFF739FDB6
:103B40008020069002208DF81C0003208DF81D00B7
:103B500000208DF81E0001208DF81F0006A92148C5
:103B6000FFF7AEFC01211020FFF75CFE1E4800F0BD
:103B700007FA02A800F04BFB02940020ADF80C00FD
:103B8000ADF80E00ADF810000C20ADF812000020CA
:103B9000ADF8140002A9144800F0C6FA202112481A
:103BA00000F0CAF90121104800F0DEF9012240F2CC
:103BB00025510D4800F093FA4FF4A060FFF7F8FD8F
:103BC00025208DF8040000208DF8050001208DF8D7
:103BD00006008DF8070001A8FFF7AEFD08B010BD84
:103BE0000000024000040240001001400CB500201B
:103BF000019000903448006840F4803032490860F9
:103C000000BF3148006800F4003000900198401C6B
:103C10000190009818B90198B0F5A04FF1D12A4849
:103C2000006800F4003010B10120009001E0002095
:103C300000900098012846D123484030006840F0A9
:103C400080502149403108602048006840F44040DD
:103C50001E4908601C48083000681B49083108608C
:103C60000846006840F4004008600846006840F4D8
:103C7000A05008601648091F0860081F006840F03F
:103C80008070091F086000BF0F48006800F00070D6
:103C90000028F9D040F205700E4908600A48083043
:103CA000006820F0030008490831086008460068F1
:103CB00040F00200086000BF03480830006800F0D0
:103CC0000C000828F8D10CBD0038024000700040FC
:103CD00019544007003C0240042808D14FF0E0216D
:103CE000096941F004014FF0E022116107E04FF053
:103CF000E021096921F004014FF0E02211617047D1
:103D000010B51548006840F4700013490860134866
:103D1000006840F001001149086000200F49083197
:103D200008600E4800680E4908400C4908600D48BC
:103D3000091D0860081F006820F48020091F086022
:103D4000002006490C310860FFF750FF4FF000607B
:103D500001498039086010BD88ED00E0003802405C
:103D6000FFFFF6FE1030002410B50121880700F097
:103D700023F801280AD106480068401C044908605D
:103D8000FFF760FC0121880700F007F810BD000074
:103D900020000020CA4302827047CA430282704753
:103DA00021B1028842F00102028004E002884FF64D
:103DB000FE731A400280704730B50246002000238F
:103DC0000024158A05EA0103958905EA010413B167
:103DD0000CB1012000E0002030BD1AB183890B43F3
:103DE000838102E083898B438381704701894FF689
:103DF000F87211400181704782884FF68F731A4024
:103E0000828082880A438280704741627047000046
:103E100000220288184B98420ED0184B98420BD0C3
:103E2000B0F1804F08D0164B984205D0154B984200
:103E300002D0154B984204D14FF68F731A404B882D
:103E40001A43124B984207D0114B984204D04FF6B8
:103E5000FF431A400B891A4302804B68C3620B88E8
:103E60000385054B984202D0044B984201D18B7ACE
:103E70000386012383827047000001400004014053
:103E80000004004000080040000C0040001000400A
:103E9000001400401FB501210846FFF7A3FC4FF0B6
:103EA0008040FFF7A3FF42F6031002900720ADF811
:103EB00004000020ADF80C00ADF806008DF80E00EF
:103EC00001A94FF08040FFF7A3FF01218807FFF70A
:103ED00061FF012211469007FFF77FFF4FF4A060BA
:103EE000FFF766FC1C208DF8000001208DF8030010
:103EF00000208DF8010002208DF802006846FFF7CF
:103F00001BFC01218807FFF74BFF1FBD10B540F2D6
:103F10002551084800F0B9F8012809D1054800F0FA
:103F20006DF9C4B240F22551024800F00EF800BF0E
:103F300010BD00000010014001F40072B2F5007FD6
:103F400000D100BFCA430280704710B50022002391
:103F500040F66A14A14200D100BF0A120124944025
:103F6000A3B2DC43048010BD21B1828942F4005227
:103F7000828104E082894DF6FF731A408281704786
:103F800010B504463248844208D101211020FFF7C1
:103F900059FC00211020FFF755FC57E02D488442C2
:103FA00009D101214804FFF72DFC00214FF4003016
:103FB000FFF728FC4AE02848844209D101218804FF
:103FC000FFF720FC00214FF48020FFF71BFC3DE0B1
:103FD0002248844209D10121C804FFF713FC0021C3
:103FE0004FF40020FFF70EFC30E01D48844209D159
:103FF00001210805FFF706FC00214FF48010FFF7B0
:1040000001FC23E01748844208D101212020FFF75A
:1040100019FC00212020FFF715FC17E0124884420C
:1040200009D101218807FFF7EDFB00214FF0804007
:10403000FFF7E8FB0AE00D48844207D10121400563
:10404000FFF7E0FB00216005FFF7DCFB10BD00007F
:10405000001001400044004000480040004C004077
:10406000005000400014014000780040007C0040F7
:1040700002460020B1F5007F00D100BF13880B403D
:104080000BB1012000E00020704770B5024600240B
:1040900000230025002040F66A16B14200D100BF7F
:1040A000C1F3421501F01F03012606FA03F3012DA7
:1040B00002D19689334006E0022D02D1168A3340A0
:1040C00001E0968A33400C12012606FA04F41688A1
:1040D000344013B10CB1012000E0002070BDF0B5F8
:1040E0000346002400260025002040F66A17B94246
:1040F00000D100BF1846C1F3421401F01F0601278A
:1041000007FA06F5012C01D10C3004E0022C01D194
:10411000103000E014301AB107682F43076002E046
:104120000768AF430760F0BD2DE9FF4705460E461F
:104130000024A14600BFA046B08900B100BF2C8A70
:1041400024F44054F08804432C82AC8941F20C6082
:104150008443B08831890843718908430443AC81A2
:10416000AC8A24F44074B0890443AC826846FFF7FB
:1041700079FB2048854202D01F48854202D1DDF8F4
:104180000C9001E0DDF80890A88900F4004040B1EF
:1041900009EBC90000EB091031684900B0FBF1F7E9
:1041A00007E009EBC90000EB091031688900B0FB9A
:1041B000F1F76420B7FBF0F004012009642101FB52
:1041C0001078A88900F4004040B1322000EBC8000C
:1041D000B0FBF1F000F00700044308E0322000EBF0
:1041E00008106421B0FBF1F000F00F0004432C81B3
:1041F000BDE8FF8700100140001401400146888897
:10420000C0F308007047C1F30802828070474FF482
:104210001651016000218180C18001810C21418102
:1042200000218181704700001CB501210846FFF77D
:10423000C9FA4FF40040009001208DF804000020DE
:104240008DF8060003208DF8050001208DF8070089
:1042500069461248FFF734F9FFF778FB0820FFF7AB
:10426000F5FB4FF400410D48FFF7A1F900F044F8C9
:104270000B490880084601880AA000F063F8084846
:1042800000884EF61771884203D10BA000F05AF84F
:1042900002E00EA000F056F81CBD00000000024035
:1042A000280000205732355158582049443A2030D0
:1042B0007825580D0A000000573235513132382028
:1042C0006465746563746564210D0A00556E6B6ED8
:1042D0006F776E20466C6173682074797065206F0B
:1042E0007220466C617368206E6F7420666F756E05
:1042F00064210D0A0000000010B500244FF40041B5
:104300000F48FFF751F99020FFF776FB0020FFF7E9
:1043100073FB0020FFF770FB0020FFF76DFBFF2011
:10432000FFF76AFB44EA0024FF20FFF765FB044324
:104330004FF400410248FFF73AF9204610BD000053
:10434000000002400FB4054B10B503A9044A0298BF
:1043500000F0ECFA10BC5DF814FB000025520008D8
:104360004C0000204100080218BF04200A0E18BFAC
:1043700040F001004FF07F4232EA010108BF40F0F7
:104380000200012808BF05207047000010B510EE9C
:10439000104A4FF019406849002200EB44002DED0F
:1043A000028B884257D8DFED650A14F0004F60EEAB
:1043B000200A14BFBEEE001AB6EE001A71EE200AF3
:1043C000FDEEE00A10EE900A00EE900AF8EEE00A28
:1043D0009FED5B1A00EEC10A9FED5A1A00EEC10A6A
:1043E000DFED590A9FED591A00EE201ADFED580A49
:1043F00040EE010A9FED571A574B00F0030100EE03
:10440000201A21EE000A7B4403EB8103D3ED000A5E
:10441000524B7B4403EB810393ED001A504B41EE6A
:10442000000A7B4403EB8101801091ED000A70EEDD
:10443000800AEABB00EE100AB8EEC01ADFED491A96
:104440009FED490ABDEC028B01EE210ABCEEC00AC9
:1044500020EE200A10BD4FF0FF40A0431BD04FF0CC
:10446000CE40B0EB440F82BFB7EE000ABDEC028B2A
:1044700010BD3E48B0EB440F28BF012293D202206A
:1044800000F08CF914F0004F15D0BDEC028BBDE8A4
:10449000104000F06BB914F5000F02BF9FED340A15
:1044A000BDEC028B10BDBDEC028BBDE8104000E0FE
:1044B00007E000F047B9BDEC028BBDE8104000F00A
:1044C0004DB900EBD07359104FF07E5202EBC15141
:1044D00000EE101AA0EB630002EBC05060EE200A61
:1044E00000EE100A20EE208A18EE100A88B118EEAD
:1044F000100AB0F1FF4F15D018EE100AFFF732FF87
:10450000042808BF00F032F9B0EE480ABDEC028B77
:1045100010BD022000F042F9BDEC028BBDE8104056
:1045200000F024B9022000F039F9BDEC028BBDE89F
:10453000104000F013B900000000501E3BAAB84024
:104540000070313EF4FD053712BB2A3D12BB2A3EF6
:10455000FFFFFF3EFFFF7F3F12B9030016B90300C4
:10456000E6B803000000004B00007E4E0000A0856E
:104570000000000010EE100A10B5A0F500014FF089
:10458000000CB1F1FE4F6CD200F500216FF07E02FD
:1045900002EBE153C1F302524FF07E5101EB0251A5
:1045A00000EE901AA0EBC3500CEB030100EE100AD2
:1045B00051EA020036D030EE601A30EE200AC1EE29
:1045C000000A20EEA00A60EE801A9FED3D2A9FEDC2
:1045D0003D1A3D48DFED3F2A00EE021A784400EB19
:1045E00082009FED3A2A21EE810A01EE101AD0EDE9
:1045F000001A3748B8EEC11A784400EB820041EE49
:10460000021A01EE101A90ED002AB8EEC11A01EE5E
:10461000222A9FED311A32EE000A00EE810A31EEB5
:10462000800A10BDF7EE000A9FED2D1A70EE600AA9
:104630009FED2A0A00EE801A9FED2A0A60EEA01A6A
:1046400000EE810A9FED281A00EE801A21EE810A01
:104650009FED261A00EE810AB5EE0B1A00EE810AD4
:1046600010BD4FF07F41B1EB400F03D2BDE81040C9
:1046700000F068B8B0F1FF4F08BF10BDB5EEC00A3A
:10468000F1EE10FA06D2012000F088F8BDE81040E3
:1046900000F05CB8B5EEC00AF1EE10FA07D10220C6
:1046A00000F07CF800F044F8B1EE400A10BDDFEDF8
:1046B000100A6FF0160C20EE200A10EE100A63E7C5
:1046C000DE02323E3B3D943E5CB7030000209A3E42
:1046D00060B70300FC849A36D95B5E3F924FA93DD8
:1046E0007279DEBD2D3E143ED85B5EBE157B4B3C21
:1046F0000000004B10B52DED028BB1EEC08A18EE14
:10470000100A20F00040C0F1FF40C00F0AD010EEA8
:10471000100A20F00040C0F1FF40C00F04BF01208C
:1047200000F03CF8B0EE480ABDEC028B10BD000072
:10473000DFED030AB7EE001A81EE200A7047000091
:104740000000000030EE000A70470000DFED020AB2
:1047500080EEA00A70470000000000009FED020AF2
:1047600020EE000A70470000000000709FED020A72
:1047700020EE000A704700000000001002E008C8A8
:10478000121F08C1002AFAD170477047002001E0CB
:1047900001C1121F002AFBD17047000001490860C7
:1047A00070470000500000202DE9FF5F82B000211B
:1047B000DDE90430020DDDF840B0034318D044F6C3
:1047C0001050A2F2FF3242431514119801281FD055
:1047D000A5EB0B00401C5FEA000A4FF000064E4FAD
:1047E000DFF83891B046504615D5CAF1000413E001
:1047F000119801244AA3012801D16FEA0B01029804
:10480000119AC0E90031C0E9024206B0BDE8F09F4C
:10481000CBF10000DFE704460021404A491842EB93
:104820000450CDE9001012E0E00707D032463B46C5
:1048300040464946FDF72DF88046894632463B46BC
:1048400010461946FDF725F806460F466410002C61
:10485000EAD1DDE90401DDE90023BAF1000F06DA4F
:10486000FDF717F842464B46FDF713F805E0FDF754
:1048700082F842464B46FDF77EF804460E4600227B
:10488000284BFDF7FFF803D84FF0FF30014607E053
:104890000022254B20463146FCF754FFFDF7DAF89D
:1048A000102409E0002C0ADB0A220023FCF719FF80
:1048B000039B30321A55641E50EA0102F2D1641C87
:1048C000039AC4F111031444119A012A03D001225E
:1048D00008430DD10AE0084304D000204FF0110B2B
:1048E000119072E7A3EB0B056D1E0DE05B4504DD37
:1048F0004FF0000205F1010504E003DA4FF0000279
:10490000A5F10105002AECD002981199C0E9023105
:10491000C0E9004579E70000000014400000F03FC6
:10492000300000000000F0430000E03F2DE9FF4FA1
:1049300095B09B468946064600250FE2252877D18B
:1049400000242746F84A0121059400E0044316F8A4
:10495000013F203B01FA03F01042F7D130782A28BA
:1049600011D06FF02F033078A0F13002092A16D849
:10497000059A44F0020402EB820203EB4202104467
:10498000761C0590EFE759F8042B0592002A03DA0C
:10499000504244F40054059044F00204761C3078F0
:1049A0002E2816D116F8010F44F004042A280DD041
:1049B0006FF02F023078A0F13003092B09D807EBF4
:1049C000870302EB4303C718761CF3E759F8047B0F
:1049D000761C30786C280FD006DC4C2817D068285D
:1049E0000DD06A2814D104E0742810D07A280FD191
:1049F0000DE044F400140AE044F4801401E044F4AF
:104A000040147278824202D104F58014761C761C20
:104A1000307866280BD013DC582877D009DC0028C2
:104A200075D04528F6D04628F4D047281AD19DE104
:104A300018E0632835D0642879D0652812D195E133
:104A4000702873D008DC6728F1D069286FD06E28F1
:104A50000DD06F2806D1B5E073282CD0752875D0FD
:104A6000782874D05A46179990476D1C75E1C4F3A5
:104A70000250022809D003280DD0D9F800100428CC
:104A80000DD00D6009F1040967E1D9F80010EA17AB
:104A9000C1E90052F6E7D9F800100D80F2E70D7079
:104AA000F0E719F8041B8DF8001000208DF80100C4
:104AB000EA46012003E059F804AB4FF0FF306107EC
:104AC0004FF0000102D40DE008F101018846B9421F
:104AD0000FDA8045F8DB1AF808100029F4D108E055
:104AE00008F1010188468142FADB1AF80810002912
:104AF000F6D105985B46A0EB080721463846179A81
:104B000000F094FA284400EB080507E04DE029E1A5
:104B10000DE01AF8010B5A4617999047B8F10108B1
:104B2000F7D25B4621463846179A13E142E00A2243
:104B30000092C4F302524FF0000A022A08D059F83A
:104B400004CB032A4FEAEC710AD00DE029E02AE0F9
:104B500009F1070121F00702F2E802C1914609E0DC
:104B60000FFA8CFC4FEAEC71042A03D14FFA8CFC4B
:104B70004FEAEC71002907DA0A460021DCF1000C4B
:104B800061EB02012D2202E0220504D52B228DF8D3
:104B90000420012203E0E20701D02022F7E790463B
:104BA00059E00A2102E010220DE010214FF0000A26
:104BB00000910BE010224FF0000A44F00404082793
:104BC000009203E008224FF0000A0092C4F3025260
:104BD000022A05D059F804CB0021032A08D009E0A5
:104BE00009F1070121F00702F2E802C1914605E050
:104BF0001FFA8CFC042A01D10CF0FF0C4FF00008C6
:104C0000220728D5702806D0009B83F0100353EAB2
:104C10000A0305D00EE040228DF80420012208E0AE
:104C20005CEA010206D030228DF804208DF80500E0
:104C300002229046009B83F0080353EA0A030AD13C
:104C40005CEA010201D1620705D530228DF804200B
:104C50004FF001087F1E582804D034A003900EA8FE
:104C600002900DE036A0F9E753466046009AFCF743
:104C700038FD84460398825C0298401E02900270C0
:104C80005CEA0100F0D1029806A9081A00F1200A96
:104C9000600702D524F4803400E00127574502DD87
:104CA000A7EB0A0000E0002000EB0A010090059845
:104CB0004144401A0590E00306D45B462146179A0A
:104CC000059800F0B3F90544002706E001A85A460C
:104CD000C05D179990476D1C7F1C4745F6DBE003CC
:104CE0000CD55B462146179A059800F09FF90544BC
:104CF00004E030205A46179990476D1C0099481ED1
:104D000000900029F5DC08E0029802995A460078E4
:104D1000491C0291179990476D1CBAF10001AAF144
:104D2000010AF1DC65E1000009280100303132336D
:104D300034353637383961626364656600000000D7
:104D400030313233343536373839414243444546C1
:104D50000000000000F058F90544761C3078002867
:104D60007FF4ECAD19B02846BDE8F08F620700D49F
:104D7000062709F1070222F0070CFCE80223E146AE
:104D800003F000485FEA080C02D00FF2702C0DE02F
:104D90005FEA045C02D50FF2682C07E05FEAC47C8E
:104DA00002D00FF2602C01E0AFF2700C4FF0FF3830
:104DB00023F00043CDF850C065280CD006DC452810
:104DC00009D046281DD047283DD13DE0662818D09F
:104DD00067287ED138E00021112F01DB112000E08F
:104DE000781CCDE9000106A90EA8FFF7DDFCDDE97E
:104DF0000F010E9A03910021009207F1010A04911C
:104E00004DE04FF000400097CDE9011006A90EA833
:104E1000FFF7CAFCDDE90F0203920E9B11990022F5
:104E2000DDF80CA00093049211B9791C00EB010A83
:104E3000B7EB0A0004D4C0F1FF3007F1010A049077
:104E4000AAEB0700019044E0012F00DA01270021BE
:104E5000112F01DD112000E03846CDE9000106A93F
:104E60000EA8FFF7A1FCDDE90F010E9A03910021C6
:104E700004910092BA4621070CD40399514500DAF7
:104E80008A46BAF1010F05DD009AAAF10101515CD1
:104E9000302908D0B84202DA10F1040F06DA0121F5
:104EA000CDE9011015E0AAF10101E9E7002805DCD0
:104EB000049901440491AAEB000102E0411C514510
:104EC00000DD8A460499401A401C01904FF00040D2
:104ED0000290200704D40198504501DBCDF80480EE
:104EE00000208DF84F0002980DF14F07B0F1004FF0
:104EF00025D02B200E9002984FF0020800280CDAE3
:104F0000404202902D200E9007E00A210298FCF703
:104F1000D2FB3031029007F8011DB8F10001A8F171
:104F20000108F2DC02980028EFD1791E0E98087073
:104F3000307800F0200040F0450007F8020D12A87C
:104F4000C01B00F107081498007800B1012000EBA5
:104F50000A01019801EBE07105984144401A401E96
:104F60000590E00306D45B462146179A059800F0A9
:104F70005DF805441498007818B15A46179990477F
:104F80006D1CE00324D55B462146179A059800F076
:104F90004DF805441CE00498002807DBDDE9030117
:104FA000884203DD0098405C179901E01799302092
:104FB0005A469047049805F10105401C0490019859
:104FC000401E019004D12E205A46179990476D1C1F
:104FD000BAF10001AAF1010ADDDC05E017F8010BC6
:104FE0005A46179990476D1CB8F10001A8F10108C5
:104FF000F4DC5B462146179A0598ABE62D000000CD
:105000002B000000200000002DE9F041044600259F
:105010001E461746880404D405E039462020B047D0
:105020006D1C641EF9D52846BDE8F0812DE9F041DC
:10503000044600251E469046C80301D5302700E0EF
:105040002027880404D505E041463846B0476D1C4A
:10505000641EF9D52846BDE8F08100000246002014
:105060000FE002EB800393ED000AB5EEC00AF1EE0B
:1050700010FA05D29FED040A02EB800383ED000ACB
:10508000401C8842EDD37047000000002DE9F04736
:105090002DED028B05460E4617469846B0EE408A27
:1050A000DDE90A9A00242DE00AEB8400D0ED000A25
:1050B00070EE880AB0EE600AFFF71CFB05EB840077
:1050C000D0ED000A09EB840090ED001A70EEC10AE1
:1050D00080EE801A05EB840080ED001A08EB840056
:1050E00090ED000A07EB8400D0ED000A05EB840088
:1050F00090ED001A00EE810A05EB840080ED000AB5
:10510000601C84B2B442CFDBBDEC028BBDE8F087FB
:1051100010B54FF00060084908600420FEF7DCFD80
:105120004FF6FF704FF0E02148610846006940F0FB
:105130000100086110BD000008ED00E010B5044654
:105140004FF47A7104FB01F000F002F810BD00008A
:1051500070B503460022114D2D68114EB5FBF6F5D2
:1051600005FB03F44FF0E025A96913E04FF0E025BB
:10517000A86988420ED0884202D20D1A2A4405E05E
:105180004FF0E0256D692D1A0D442A440146A242D4
:1051900000D300E0EAE700BF70BD0000000000207F
:1051A00040420F002DE9F04786B0074688469146F9
:1051B0001D46DDE90F4A0E9E3B462A46012104A802
:1051C000FBF750F943463246294602A8FBF74AF955
:1051D0002346324601216846FBF744F96A4602A994
:1051E00004A8FBF743F900200FE004EB800191EDE8
:1051F000000A09EB8001D1ED000A30EE200A04EB31
:10520000800181ED000A411C88B2B042EDDBBAF1A9
:10521000000F03D031462046FFF720FF06B0BDE85F
:10522000F087000070B504460D46E1B20548FEF770
:10523000EAFF00BF80210348FEF71AFF0028F9D0DB
:10524000204670BD001001401CB5FFF761FFFEF75E
:105250004DFAFEF7D9F9FEF71DFE4FF4E130FEF7E7
:1052600041FCFCF7F7FCFEF7DFFFFDF79FFBFCF7C7
:10527000B9FE2DE0FEF7A6F9012829D1FCF722FEA0
:1052800002E00A20FFF75AFF124800780028F8D001
:105290001148007870B96B4601AA4FF4FA510F48D3
:1052A000FDF79EFD04469DED000A9DF80400FDF704
:1052B0000FFB0AE008480078012806D14FF4FA51A4
:1052C0000648FDF725F9FDF70FFE0020014908709B
:1052D000D0E7000016000020140000205400002039
:1052E000F0B52DED028B81B006460D46174696EDC2
:1052F000000A8DED000A9FED1B0AB0EE408A0023E4
:105300006A4639463046FBF7ADFA002419E006EB51
:105310008400D0ED000A9DED001A70EEC10AB0EED7
:10532000600AFFF733F805EB840080ED000A05EB17
:10533000840090ED000A30EE080AB0EE408A601C4E
:1053400084B2BC42E3DBB7EE000AC0EE088A3A46FC
:105350002946B0EE680A2846FAF7FCFF01B0BDEC1A
:10536000028BF0BD000000000000010002000300FD
:105370000400000000000000000000000000000029
:10538000000000000000000000000000000000001D
:10539000000000000000000000000000000000000D
:1053A00000000000000000000000000000000000FD
:1053B00000000000000003000400050006000700D4
:1053C00008000000000000000000000000000000D5
:1053D00000000000000000000000000000000000CD
:1053E00000000000000000000000000000000000BD
:1053F00000000000000000000000000000000000AD
:105400000000000006000700080009000A000B0069
:105410000C00000000000000000000000000000080
:10542000000000000000000000000000000000007C
:10543000000000000000000000000000000000006C
:10544000000000000000000000000000000000005C
:1054500000000A000B000C000D000E000F001000F1
:10546000000000000000000000000000000000003C
:10547000000000000000000000000000000000002C
:10548000000000000000000000000000000000001C
:10549000000000000000000000000000000000000C
:1054A0000E000F0010001100120013001400150070
:1054B00000000000000000000000000000000000EC
:1054C00000000000000000000000000000000000DC
:1054D00000000000000000000000000000000000CC
:1054E00000000000000000000000000000001200AA
:1054F00013001400150016001700180019001A00F8
:10550000000000000000000000000000000000009B
:10551000000000000000000000000000000000008B
:10552000000000000000000000000000000000007B
:10553000000000000000000000000000170018003C
:1055400019001A001B001C001D001E001F00200077
:10555000000000000000000000000000000000004B
:10556000000000000000000000000000000000003B
:10557000000000000000000000000000000000002B
:10558000000000000000000000001C001D001E00C4
:105590001F0020002100220023002400250000001D
:1055A00000000000000000000000000000000000FB
:1055B00000000000000000000000000000000000EB
:1055C00000000000000000000000000000000000DB
:1055D000000000000000000022002300240025003D
:1055E00026002700280029002A002B0000000000C8
:1055F00000000000000000000000000000000000AB
:10560000000000000000000000000000000000009A
:10561000000000000000000000000000000000008A
:105620000000000000002700280029002A002B00AD
:105630002C002D002E002F00300031003200000021
:10564000000000000000000000000000000000005A
:10565000000000000000000000000000000000004A
:10566000000000000000000000000000000000003A
:10567000000000002D002E002F003000310032000D
:1056800033003400350036003700380039000000A0
:10569000000000000000000000000000000000000A
:1056A00000000000000000000000000000000000FA
:1056B00000000000000000000000000000000000EA
:1056C00000003400350036003700380039003A0059
:1056D0003B003C003D003E003F0040004100000018
:1056E00000000000000000000000000000000000BA
:1056F00000000000000000000000000000000000AA
:105700000000000000000000000000000000000099
:105710003B003C003D003E003F0040004100420095
:10572000430044004500460047004800490000008F
:105730000000000000000000000000000000000069
:105740000000000000000000000000000000000059
:105750000000000000000000000000000000430006
:105760004400450046004700480049004A004B00FD
:105770004C004D004E004F00500051005200000000
:105780000000000000000000000000000000000019
:105790000000000000000000000000000000000009
:1057A0000000000000000000000000004B004C0062
:1057B0004D004E004F005000510052005300540065
:1057C000550056005700580059005A005B00000071
:1057D00000000000000000000000000000000000C9
:1057E00000000000000000000000000000000000B9
:1057F00000000000000000000000540055005600AA
:105800005700580059005A005B005C005D005E00C4
:105810005F006000610062006300640065000000DA
:105820000000000000000000000000000000000078
:105830000000000000000000000000000000000068
:1058400000000000000000005D005E005F006000DE
:105850006100620063006400650066006700680024
:1058600069006A006B006C006D006E006F007000D4
:105870000000000000000000000000000000000028
:105880000000000000000000000000000000000018
:105890000000000000006700680069006A006B00FB
:1058A0006C006D006E006F0070007100720073007C
:1058B0007400750076007700780079007A007B002C
:1058C0007C0000000000000000000000000000005C
:1058D00000000000000000000000000000000000C8
:1058E00000000000720073007400750076007700FD
:1058F000780079007A007B007C007D007E007F00CC
:10590000800081008200830084008500860087007B
:105910008800890000000000000000000000000076
:105920000000000000000000000000000000000077
:1059300000007E007F0080008100820083008400E0
:10594000850086008700880089008A008B008C0013
:105950008D008E008F0090009100920093009400C3
:10596000950096000000000000000000000000000C
:105970000000000000000000000000000000000027
:105980008B008C008D008E008F00900091009200A3
:1059900093009400950096009700980099009A0053
:1059A0009B009C009D009E009F00A000A100A20003
:1059B000A300A400000000000000000000000000A0
:1059C000000000000000000000000000000098003F
:1059D00099009A009B009C009D009E009F00A000E3
:1059E000A100A200A300A400A500A600A700A80093
:1059F000A900AA00AB00AC00AD00AE00AF00B00043
:105A0000B100B200B300B4000000000000000000CC
:105A1000000000000000000000000000A600A70039
:105A2000A800A900AA00AB00AC00AD00AE00AF001A
:105A3000B000B100B200B300B400B500B600B700CA
:105A4000B800B900BA00BB00BC00BD00BE00BF007A
:105A5000C000C100C200C300C400C50000000000B7
:105A600000000000000000000000B600B700B80011
:105A7000B900BA00BB00BC00BD00BE00BF00C00042
:105A8000C100C200C300C400C500C600C700C800F2
:105A9000C900CA00CB00CC00CD00CE00CF00D000A2
:105AA000D100D200D300D400D500D6000000000001
:105AB0000000000000000000C700C800C900CA00C4
:105AC000CB00CC00CD00CE00CF00D000D100D20062
:105AD000D300D400D500D600D700D800D900DA0012
